:020000040800F2
:10000000F8FF0720EDA60508BFF00408ADF00408CE
:10001000C1F00408D1F00408E1F004080000000079
:10002000000000000000000000000000F1F00408E3
:10003000F3F004080000000005030508610305084B
:10004000CDA50508DDF10408EFF10408F5F1040879
:1000500035900508CDA5050871F1040877F104086D
:100060007DF1040883F1040889F10408D529050805
:10007000E5290508F5290508052A0508152A0508B2
:10008000252A0508352A0508CDA50508CDA50508AA
:10009000D94D0508DF4D0508E54D05088FF1040829
:1000A00009F204080FF2040821F2040827F20408F8
:1000B0002DF2040833F2040839F20408B9F20408F6
:1000C000BFF20408C5F20408CBF20408CDA5050868
:1000D000CDA5050889F204088FF2040895F20408FA
:1000E000B3F10408E3F1040801F1040865F204081F
:1000F0006BF2040883F204087DF20408452A05081F
:10010000CDA50508F599050841F20408CDA5050817
:100110009BF20408A1F2040859F204085FF20408F3
:10012000552A0508652A0508752A0508852A05083F
:10013000952A0508C1630508E9F10408CDA505085D
:10014000CDA50508CDA50508CDA50508F5F0040841
:10015000A52A0508B52A0508C52A0508A7F2040836
:10016000CDA50508CDA50508CDA50508CDA5050893
:10017000CDA50508CDA50508CDA505080000000002
:10018000CDA50508CDA50508ADF20408B3F2040815
:10019000CDA50508CDA50508CDA50508CDA5050863
:1001A000CDA50508CDA50508CDA50508CDA5050853
:1001B000CDA50508CDA50508CDA50508D1F20408F3
:1001C000D7F20408CDA5050800000000CDA505085C
:1001D000CDA50508CDA50508CDA50508CDA5050823
:1001E000CDA50508CDA50508CDA50508CDA5050813
:1001F000CDA50508CDA5050842884378007843EAD7
:10020000022340EA032070470B0A017043700B0C75
:10021000090E8370C1707047036A0239023B8B423A
:1002200083BFC389406B01FB03000020704700F1CE
:100230000B010022D30143EA520310F8012B52FABA
:1002400083F38842DAB2F5D11046704737B50D46D0
:10025000044620B9092000232B6003B030BD036899
:10026000002BF7D05A79002AF4D081885A8991421C
:10027000F0D118680DF10702062102F0EFFA9DF89F
:10028000073003F00103034313F0FF00E2D12368BA
:10029000E2E738B50568044615F8010B20B140F2D5
:1002A000B5115AF07FFA08B1256038BD4FF0FF3024
:1002B000FBE70328CA7E8B7E08BF487D43EA022302
:1002C00002BF0A7D42EA002243EA02431846704711
:1002D000C2F307238A76CB760378032B01BF120C77
:1002E0000A75120A4A75704737B5C37904461BB9B7
:1002F0000025284603B030BD00F13C01826B01238C
:100300000068019102F095FA054680B9E36AE07150
:10031000A06B626AC31A9342EAD2A3790199022BB5
:10032000E6D102440123206802F083FAE1E70125C7
:10033000DFE738B5836B05460C468B4210D0FFF7DC
:10034000D3FF60B92246012305F13C01286802F081
:1003500061FA00281CBF4FF0FF340120AC6338BDA8
:100360000020FCE738B500230546C3714FF0FF338A
:100370008363FFF7DEFF044618BB95F83B2295F830
:100380003A3243EA02234AF6552293421BD195F8AA
:100390003C30EB2B03D01833DBB2012B15D80322F2
:1003A0000B4905F1720040F055F940B105220949A9
:1003B00005F18E0040F04EF9002818BF02242046B7
:1003C00038BD0424FBE70324F9E70224F7E700BF64
:1003D000A0A50808A4A508082DE9F047437986B030
:1003E000044601F0FE0593B10DF1070206210068F5
:1003F00002F034FA9DF80730DA0708D41DB113F083
:10040000040500D00A25284606B0BDE8F087002381
:100410000DF1070205212068637102F01FFA9DF8B3
:10042000073013F0010840F014810DB15B07E9D4E7
:1004300000212046FFF796FF022803D0012823D889
:10044000277987B302AD04F2022104F242272E4637
:1004500011F8040C10B10846FFF7CEFE103145F834
:10046000040B8F42F4D1257905B1013D56F8257072
:100470007FB139462046FFF775FF23795BB9012824
:1004800011D90135032DF1D9042808D14FF0010805
:1004900007E00320F1E70428F8D0012803D94FF042
:1004A0000D084546AFE794F8482094F8473043EAF2
:1004B0000223B3F5007FF2D194F8530094F8526010
:1004C00056EA002604D104F16000FFF795FE0646C7
:1004D00094F84C5066626B1EA571012BDFD894F81E
:1004E00049904B46A4F80E90002BD8D009F1FF3369
:1004F00013EA090FD3D194F84E3094F84DA04AEA8C
:10050000032A1AF00F0F0FFA8AF1A4F80CA0C6D133
:1005100094F8503094F84F0050EA032003D104F1CE
:100520005C00FFF769FE94F84BE094F84A3053EA18
:100530000E2EB4D006FB05FC0EEB1A12624482426A
:10054000ADD8801A4845B0FBF9F5A8D3464B9D427B
:10055000A5D84FF6F5739D427DD94FF003090235BA
:100560000EEB07033A44B9F1030F2562A762E36279
:1005700062635CD194F8672094F8663043EA022302
:100580000B431BB2002B8AD1AD0004F16800FFF7CA
:1005900033FE206305F2FF15B6EB552FFFF47FAF56
:1005A0004FF0FF33B9F1030FC4E905334FF0800377
:1005B00023722FD194F86D2094F86C3043EA022313
:1005C000012B27D1791C2046FFF7B3FE10BB94F80E
:1005D0003B2294F83A32207243EA02234AF655222B
:1005E000934217D104F13C00FFF706FE1F4B9842DF
:1005F00010D104F50870FFF7FFFD1D4B984209D19B
:1006000004F50970FFF7F8FDA06104F50A70FFF723
:10061000F3FD6061174A84F80590138801339BB29B
:1006200013806381144B23610023E36139E7BAF13E
:10063000000F3FF434AF6344B9F1020F23634FEA74
:1006400045031BBF5B1905F001051D4605EB53056E
:10065000A0E70325D7E640F6F5794D458CBF4FF06E
:1006600002094FF001097AE7F5FFFF0F525261418D
:100670007272416150C1022052C1022001292DE94C
:10068000F04706460C46174674D9036A8B4271D967
:100690004379022B40D0032B51D0012B6AD101EBBF
:1006A0005108C16A01EB5821FFF743FE054640BBE4
:1006B00014F0010406F13C0908F1010AC8F3080826
:1006C00008BFFBB230461FBF19F8083003F00F0215
:1006D0003B0103F0F00318BF134309F8083001236E
:1006E000F16AF37101EB5A21FFF723FE054640B989
:1006F000CAF3080A44B1C7F3071709F80A700123BF
:10070000F3712846BDE8F08719F80A30C7F30327CC
:1007100023F00F031F43F0E7C16A01EB1421FFF739
:1007200008FE05460028ECD1640006F13C0304F401
:10073000FF741F551819C7F307274770DFE7C16A11
:1007400001EBD411FFF7F5FD05460028D9D1A4002F
:1007500006F13C0327F0704704F4FE741C44204665
:10076000FFF74AFD00F0704047EA00012046FFF71E
:100770004BFDC4E70225C4E70129F8B505460C4640
:1007800052D9036A99424FD24379022B29D0032BC5
:1007900038D0012B48D101EB5106C16A01EB56213B
:1007A000FFF7C7FD10B14FF0FF30F8BD771CC6F35F
:1007B0000806E96A28462E4401EB572196F83C606A
:1007C000FFF7B7FD0028EED1C7F30807E3073D4464
:1007D00095F83C0046EA00204CBF0009C0F30B002E
:1007E000E3E7C16A01EB1421FFF7A3FD0028DAD18A
:1007F00064003C3504F4FF742B19285D5B7840EAF3
:100800000320D2E7C16A01EBD411FFF792FD002863
:10081000C9D1A40005F13C0004F4FE742044FFF7A4
:10082000EBFC20F07040C0E70120BEE7B1F5001FEF
:10083000F8B506460C4601D30220F8BDCA06FBD126
:10084000826805680161CAB96B79022B01D92B6BEB
:100850009BB9AB89B3EB541FEED92B6BB361B36972
:100860007261002BE8D003EB54233C35C4F3080439
:100870000020B3612C44F461DFE71A46EF897F0260
:10088000BC42114604D22846FFF7C6FCB061E6E739
:100890003068FFF771FF431C024606D00128CBD910
:1008A0002B6A8342C8D9E41BEAE70120C5E72DE99A
:1008B000F041804605680F4649B96E69C6B12B6A9A
:1008C000B34298BF0126AB69A3B9002406E02846CD
:1008D000FFF752FF0128044603D801242046BDE853
:1008E000F081421C51D02B6A8342F7D83E46EAE79A
:1008F0000126E8E7BE4215D12B6A741CD8F8000027
:10090000A34298BF02242146FFF736FF0128E4D016
:10091000431C3AD0D8B16B69012B03D92A6A9342A0
:1009200038BF1E46344601342B6AA34202D8012E3A
:10093000CBD902242146D8F80000FFF71DFF40B1B3
:100940000128CAD0013020D0B442ECD1BDE7002C40
:10095000E8D04FF0FF3221462846FFF78FFE90B9CE
:1009600057B92A6AAB69023A6C61934210D92B7A63
:1009700043F001032B72B1E7224639462846FFF7C0
:100980007DFE0028EDD00128A7D14FF0FF34A5E768
:10099000013BAB61EBE773B50C46064611460568B3
:1009A000012C2CD92B6AA34229D92AB14FF0FF324E
:1009B0002846FFF763FE40B9214630680194FFF7EF
:1009C000DBFE0199044610B9002002B070BD012879
:1009D00015D0431C15D000222846FFF74FFE0028F3
:1009E000F3D12A6AAB69911E8B4205D20133AB6108
:1009F0002B7A43F001032B72A242DDD8E4E70220F8
:100A0000E3E70120E1E7F7B505460191FFF76CFC4C
:100A1000044600BB05F13C0701992846FFF7FCFBA3
:100A20004FF400720646A863214638463FF0FCFDAD
:100A3000EB899C4205D3E889001B18BF012003B055
:100A4000F0BD012332193946286801F0F2FE002872
:100A5000F1D10134ECE70120F1E72DE9F843076912
:100A60000446894606682037B7F5001F24BF0023D7
:100A70008361836973B1C7F30808B8F1000F39D1F6
:100A800001334169836139B9B389B3EB571F31D859
:100A90000023A36104200BE0F389013B13EA5723F1
:100AA00028D13046FFF768FE0128054602D802200B
:100AB000BDE8F883421C01D10120F9E7336A834283
:100AC00012D8B9F1000FE3D061692046FFF7EFFEBD
:100AD0000546A8B10128EAD0431CEDD001463046B6
:100AE000FFF791FF0028E7D1294630466561FFF7FF
:100AF00093FBA0613C36002027614644E661D7E7BE
:100B00000720D5E7F8B50E46002104460768FFF731
:100B10008DFEA8B90546A1693846FFF70AFC78B9E9
:100B2000E3691B78E52B00D01BB90135B54201D133
:100B3000F8BD054601212046FFF78FFF0028EAD0C7
:100B4000042808BF0720F3E72DE9F84FFF270646E2
:100B50008846D0F800903D4604244FF6FF7AB169EC
:100B600011B9002C73D063E04846FFF7E2FB04465E
:100B700000285DD1F0690378002B70D0C27AE52B94
:100B800002F03F02B27158D02E2B56D022F0200135
:100B9000A1F1080CDCF1000141EB0C0141454CD105
:100BA0000F2A4FD15C0646D5326903F0BF03477B5D
:100BB000F262427BBA4240D1C17E827E42EA012289
:100BC00011B2002A39D102780D24D9F810504FF013
:100BD000010C22F04002DFF88CE0013A62431EF87B
:100BE000014B00EB040B045D9BF801B044EA0B24BD
:100BF000BCF1000F23D0FF2A1FD825F81240A446CD
:100C0000013201310D29EAD10178490607D5BCF13D
:100C1000000F04D0FF2A10D8002125F812105D1E05
:100C2000EDB200213046FFF718FF0446002896D0A9
:100C30000023B3610CE09D42BBD0FF25F1E7544592
:100C4000DFD0FAE73DB9FFF7F2FAB84203D100244A
:100C50002046BDE8F88F4FF0FF33F362F8E7042435
:100C6000E6E700BF6EA60808C16A4B1C2DE9F041FB
:100C700004460568066918D1E5274FF00108A16907
:100C80002846FFF756FB60B9E3691F7085F80780B7
:100C90002369B3420DD201462046FFF7DEFE00284D
:100CA000EDD0042808BF022003E0FFF7BFFD0028B5
:100CB000E2D0BDE8F08100002DE9F04F002185B0C1
:100CC0000446D0F800A0FFF7B1FD0746002840F029
:100CD00092804FF0FF094FF0FF33C846E362009364
:100CE000A1695046FFF725FB0746002840F08380A6
:100CF000E5692E78002E00F08280EA7AE52E02F077
:100D00003F03A37103D0100704D50F2B04D0009B21
:100D1000E36253E00F2B59D194F82B30590643D49A
:100D2000720649D5236906F0BF0695F80D90E36277
:100D30006B7B4B4542D1EA7EAB7E53EA02233DD129
:100D40002F780122DAF810B007F03F077B1E0D273D
:100D50005F432C4B13F8011B681815F8018040788D
:100D600048EA00286AB3FF2F039327D8404659F07A
:100D70002DFD791C02903BF81700019159F026FDDA
:100D8000029A82421AD101994246039B0F461E499C
:100D90009942DFD12B785B0603D512B13BF81730AF
:100DA00063B9013E5FFA86F800212046FFF755FE41
:100DB0000746002894D01EE0B045B9D04FF0FF0898
:100DC000F2E74FF6FF718845E1D0F7E7B8F1000F81
:100DD00004D12846FFF72BFA48450CD094F82B7025
:100DE00017F0010793D10B2204F1200128463FF0B0
:100DF00031FC00288BD1384605B0BDE8F08F0427C0
:100E0000F9E700BF6EA608087BA608082DE9F04F99
:100E100090F82BB089B005461BF0A00440F0E180AB
:100E200007683A6932F81430002B6BD105F12006BF
:100E30000DF1140A1BF0010F96E807008AE807007D
:100E400000F0D68040234FF0010885F82B30B446DF
:100E50003B69B8F1050F9AE80700ACE803002CF8ED
:100E6000022B4FEA12428CF800205ED9981E4246AF
:100E700030F8021F002947D10DF1130C072102F0B1
:100E80000F0E01390EF13000392888BF0EF13700FE
:100E90000F2A0CF801094FEA121048D808AB7E203F
:100EA0005A1802F8140C05F11F00002284469142E2
:100EB00006D01CF801EF02F10109BEF1200F38D174
:100EC000072902F1010297BF08AB4FF0200C03EB9A
:100ED000010C013198BF1CF814CC072A00F802C09D
:100EE000EED92846FFF7E8FE814600287CD108F1BC
:100EF0000108B8F1640FAAD14FF00709484609B0BC
:100F0000BDE8F08F01348DE74FF0100C01F0010EB9
:100F100049080EEB4202D30344BF82F4883282F0C8
:100F20002102BCF1010CF1D1A2E74246A4E702463E
:100F3000A5E74A46BBE729692846A1EB4411FFF71C
:100F400075FC81460028D9D14FF6FF783046FFF76F
:100F50006EF90190A9693846FFF7EBF98146002840
:100F6000CCD1EB69E1B2019A4FF00D0CD7F810E04B
:100F70005A734FF00F02DFF8DCA0DA724A1E1873C2
:100F80000CFB02F284469876D87640451AF8019B0D
:100F90000CF1010C18BF3EF8120003EB090B18BF4F
:100FA000013203F809004FEA1029002808BF404623
:100FB000BCF10D0F8BF80190E7D1404502D03EF80F
:100FC00012200AB941F0400119700123002128467E
:100FD000FB71FFF742FD814600288FD1013CB9D15A
:100FE0001AE04FF0060989E7042887D185F82BB06D
:100FF0001BF0020F28461BBF0C340D210124B4FB4B
:10100000F1F418BF01342146FFF77CFD814600282A
:101010007FF474AF013C8ED1A9693846FFF789F996
:10102000814600287FF46AAF01462022E8693FF03C
:10103000FBFAEB6903CE18605960B27831889A7276
:10104000198195F82B30EA6903F018031373012313
:10105000FB7153E76EA60808F8B50446FFF744F99C
:101060000546002842D16379032B37D1277A012F17
:1010700034D104F13C0601464FF4007230463FF093
:10108000D3FA55234122722184F83A32AA2384F8F4
:101090003F2004F5097084F83B32522384F8222261
:1010A00084F83C3084F83D30612384F8201284F8C1
:1010B0003E3084F8233284F82112A169FFF7A4F8A6
:1010C000616904F50A70FFF79FF8A26A3B46314652
:1010D00001322068A26301F0ACFB25720022206877
:1010E000114601F0BBFB003818BF0120F8BD2DE907
:1010F000F0470026D0F800A007460C468E7583699D
:10110000002B00F09380C36A01336ED1F96900238C
:101110002E264D1E184615F8012F0130202A0CD01E
:10112000052A08BFE522092804D10B2B9EBFE7182A
:1011300001337E72E71801337A720B28EBD1E21883
:1011400000205072A27D002A5FD1002B54D06FF096
:10115000080604F109020825361BB31812F8010B22
:1011600000284CD02E2883B262D0A3F14100192868
:1011700003D8087B054200D020331373EDE7B9F1A3
:10118000000F05D100F520539BB2B3F5006F13D3C8
:1011900040F2B51140EA094059F0E4FAFF28C8F1DD
:1011A000FF051AD9012D23D904EB0803020AD875CB
:1011B0009A7502239844002002368146DAF81030EE
:1011C000985B0028DBD14546B9F1000F4FF00003D2
:1011D00018BF00252544AB7598E758B1002DF3D012
:1011E00004EB080398750123E4E7B146B046E5E750
:1011F0000025E9E70546E7E73F23A37501232344DC
:1012000000229A750B7B03B96372CB7A01F11C0043
:101210002372FEF7F1FF2060CA7D8B7D43EA022333
:10122000E3804A7E0B7E43EA0223A380BDE8F08779
:101230001025A2E72DE9F04F0B7887B006468846C7
:101240002F2BD0F800B001D05C2B09D14246137887
:10125000904601322F2BFAD05C2BF8D0002301E00E
:10126000DBF81C30B36098F800301F2B00F22981A6
:1012700080230021304686F82B30FFF7D7FA07B0DD
:10128000BDE8F08FFE2D00F245812AF815300135BA
:101290001DE108F101010591DDF8148098F80020A6
:1012A0002F2AF6D05C2AF4D0202B34BF042400244B
:1012B000012D2CD1BAF800302E2B2ED1002306F1AF
:1012C00020022AF815309D428CBF2E2120210133A7
:1012D0000B2B02F8011BF6D144F02004304686F8AF
:1012E0002B40FFF7E9FC96F82B30002800F0D8805F
:1012F0000428C4D1990603F0040240F1CD80002AED
:1013000000F0DF808023002086F82B30B7E7022D25
:1013100003D1BAF802302E2BCCD0AAF1020285BB41
:1013200000232AF81530002D00F0F4803AF813203D
:1013300019460133202AF9D009B92E2A01D144F0E7
:101340000304AAF1020232F815302E2B01D0013D20
:10135000F9D14FF020334FF0000973624F463362EA
:10136000C6F8273008233AF811004A1CE8B12028B3
:1013700003D02E280DD195420FD044F0030411461E
:10138000F1E732F81530202B01D02E2BC8D1013DCA
:10139000C5E7994504D2954233D10B2B2AD101E000
:1013A0000B2B22D144F003040B2396F82020E52ACE
:1013B00004BF052286F82020082B04BFBF00FFB21F
:1013C00007F00C030C2B03D007F00303032B01D110
:1013D00044F00204A30781D4FD0748BF44F0100481
:1013E000780748BF44F0080478E7954202D044F0FB
:1013F0000304DAD3BF002A460B234FF00809FFB2DB
:10140000BDE77F2813D940F2B511CDE9022344F09E
:101410000203019359F0A6F910F0800FDDE90223D1
:1014200010D000F07F003D49085C019C30B1DFF82E
:10143000F4C01CF8011BE9B18142FAD144F0030465
:101440005F2010E0FF28F0D9591E894503D344F0EE
:101450000304994693E706EB0901040A09F101091F
:1014600081F82040019C06EB090109F1010981F88E
:10147000200084E7A0F1410189B2192902D847F080
:101480000207F0E7A0F1610189B219299EBF203857
:1014900047F0010780B2E6E7002A08BF0520EEE624
:1014A0005A073FF5ECAEB379DB0635D533690BF15E
:1014B0003C019BF80500C3F308031944FEF7F9FE4D
:1014C000B06033680025CDF81480D3F810A005A8CB
:1014D000FEF7DFFE421C1DD0B0F5803F24BF030C99
:1014E0002AF8153083B228BF01351F2B7FF6D4AE02
:1014F0002F2B3FF4D1AE5C2B3FF4CEAE7F2B3FF6CB
:10150000C1AE1846064911F8012B002A3FF4BAAEC5
:101510008242F8D10620B2E60520B0E6EEA5080822
:10152000AAA50808B3A5080800214171FEF754BF19
:101530002DE9F04305468DB090461E460C46002925
:1015400000F0BB8003F03F073946FEF745FF002857
:1015500040F0AB80414668460095FFF76BFE0246BF
:1015600020B99DF92B30002BB8BF062216F01C0FB6
:101570006BD0002A3CD0042A37D16846FFF746FCDE
:10158000024690BB47F00807DDF81C90A846494684
:1015900018F8050FFEF78DFE064658F067FA01466B
:1015A00009F10E00FEF730FE079B20224046DA725A
:1015B00000220799FEF78CFE079B00221A775A77C4
:1015C0009A77DA770123EB71DEB131466846D5F8B8
:1015D0003880FFF7E0F9024638B9013E4146284617
:1015E000FEF7A7FE6E61024658B10023236028E093
:1015F0009DF8063013F0110F31D1700757D4310721
:10160000C2D4AB6B3907079E236248BF47F040073F
:10161000314666626879FEF74CFE0146A06006F12D
:101620001C00FEF7E9FD6B89BA060646A3804FF061
:101630000003E060256027746374E361636110D484
:10164000002210460DB0BDE8F083002ACDD19DF8F0
:101650000630DA062DD4B607D3D5D807D1D5072260
:10166000C3E70028ECD0EF8960617F02B7420FD357
:101670000022A161002AB8D1C6F30803002BDFD0F5
:101680002846FEF7C9FDB0B100EB5620E061D8E76F
:101690002068F61BFFF770F80128014603D9431CA8
:1016A000E4D10122E5E70222E3E702469DE70822B2
:1016B0009BE7042299E7022297E70922C1E72DE977
:1016C000F04F994685B00023884603A90446C9F81F
:1016D00000301746FEF7BAFD0646F8B9667CEEB94B
:1016E00094F810A01AF0010300937BD0E2686369BC
:1016F000D21A974228BF174687B16269C2F308031E
:10170000002B56D1039BDB89013B13EA522A15D1EA
:1017100042B9A06801280AD802266674304605B08E
:10172000BDE8F08FA1692068FFF726F8F2E7431CB7
:1017300003D10123009E6374F0E7A061DDF80CB0D3
:10174000A1695846FEF768FD0028E5D0B7F5007F8F
:101750000AEB00022CD3BBF80E100AEB57207D0ACF
:1017600001928842DBF8000088BFA1EB0A054146E0
:101770002B4601F04FF80028DBD10399CB795BB100
:10178000886B019A801AA84206D24FF400723C314D
:1017900008EB40203EF002FF6D02D9F800307F1BBD
:1017A000A8442B44C9F8003063692B446361A3E764
:1017B000E2616569E169C5F308050398C5F500753F
:1017C000BD4228BF3D46FEF7B4FD0028B1D10399C4
:1017D0002A46636940463C31C3F3080319443EF08E
:1017E000DDFEDAE7072699E72DE9F04F9A4685B046
:1017F0000023894603A90446CAF800301746FEF7BD
:1018000025FD064618BB667C0EBB237C9A0740F17B
:10181000A7806369FB4200D3DF43A7B16369C3F3C9
:101820000802002A7FD1039AB2F80E8008F1FF382F
:1018300018EA53281ED173B9A06870B90146204632
:10184000FFF735F848B9237C43F040032374304652
:1018500005B0BDE8F08FA169F1E7012802D10226A9
:101860006674F4E7431C01D10126F9E7A368A0617F
:1018700003B9A0600398E369826B9A4203D1FEF733
:1018800033FD0028F0D1039DA1692846FEF7C4FC72
:101890000028E4D0B7F5007F08EB000B35D3E989C9
:1018A00008EB57207B0A5A468842286888BFA1EB7C
:1018B00008034946019300F0BCFF05460028D3D138
:1018C000DDF80C80019BD8F83810A1EB0B01994290
:1018D0000AD24FF4007209EB412108F13C003EF0BE
:1018E0005DFE019B88F807505D02DAF800307F1B2F
:1018F0006269A9442B441544CAF80030E368656165
:10190000AB422CBFE360E56087E76169E368994219
:1019100007D32846FEF7E8FC0028A5D1039BC3F8AF
:1019200038B0C4F81CB06569E169C5F308050398CF
:10193000C5F50075BD4228BF3D46FEF7FAFC0028FC
:1019400092D103982A46636949463C30C3F30803A1
:1019500018443EF023FE039B4FF00102DA71C4E706
:10196000072674E7F7B501A90546FEF76FFC0446A4
:1019700068BB2C7C14F0400429D058F077F8296A11
:1019800007460198FEF7D5FC044600BB6E6AF37A61
:10199000314643F02003F3722868AA680530FEF749
:1019A00097FCE96806F11C00FEF72EFC394606F1AB
:1019B0001600FEF729FC01230198B474F474C37176
:1019C000FFF74AFB2B7C044623F040032B74204690
:1019D00003B0F0BD13B50446FFF7C4FF28B901A951
:1019E0002046FEF733FC00B9206002B010BD70B590
:1019F0000E468CB000210546FEF7EEFC044660B9A9
:101A0000314668460095FFF715FC044690B99DF9EC
:101A10002B30002B04DA029BEB6120460CB070BD2A
:101A20009DF80630DB0609D507996879FEF741FC79
:101A3000E861F2E7042808BF0524EEE70524ECE797
:101A40002DE9F0470E460021D2B081463170904614
:101A5000FEF7C2FC054608BBD9F81C304446CDF859
:101A600000900293DDF808A0BAF1000F1CD14445A4
:101A700004BF04F1FF342F23A4EB060108BF335544
:101A800033461A5D03F8012B5A189045F9D8A8EB94
:101A900004030134A04538BF01231E440023284617
:101AA000337052B0BDE8F08720216846FEF7BEFED5
:101AB00000284BD106994846FEF73BFC0746002814
:101AC00042D1079999F80500FEF7F3FB39460290D9
:101AD0006846FEF7ABFE002838D100216846FFF7C4
:101AE00033F80746B0BB079999F80500FEF7E1FB0C
:101AF00050450AD039466846FEF7AFFF0028ECD0C3
:101B00000546042D08BF0225C8E70CA96846FFF763
:101B1000EEFA0DF1460212F8011B3B46013700298F
:101B2000F9D1BC4214D331191A4632B9621ED21A05
:101B3000DB431C442F23B35494E7013A0CA8104410
:101B4000807D01F8010DF0E70546A7E70546A5E70A
:101B50001125A3E70546D4E72DE9F3410D4601A978
:101B60000446FEF773FB0646002850D1667C002E23
:101B70004DD1E368AB4204D2227C12F0020F08BFC1
:101B80001D460022636962619DB90020E2686369B5
:101B9000934284BF227CE360C3F3080384BF42F016
:101BA00040022274002B32D0E369834218BFE06107
:101BB0002DE0019AD7897F02FBB1013B6A1EB3FB7E
:101BC000F7F1B2FBF7F28A4217D37A42A1691340C8
:101BD000ED1A63610029D8D0BD42636922D86369D8
:101BE0002B446361C5F30803002BCED00198FEF7A8
:101BF00013FB50B100EB5520C8E7A16881B920461E
:101C0000FEF755FE0128014605D1022666743046CE
:101C100002B0BDE8F081481C01D10126F6E7A160C1
:101C2000A161D7E73B44A5EB07086361237C9A07D2
:101C300006D52046FEF73BFE054628B90146CEE70D
:101C40002068FEF799FD05466B1CE6D0012DDCD916
:101C5000019B1B6AAB42D8D92946A5614546BBE723
:101C600070B5054616460C4621B30021FEF7B4FBBD
:101C700068B9314620462560FFF7DCFAE0B994F9EF
:101C80002B30002B0BDBA379DB0603D405200023CC
:101C900023600EE06879E169FEF70BFBA0606B89B9
:101CA00000212046A380FEF7C1FD0428EED00028C5
:101CB000EDD170BD0920FCE70428E7D0E7E713B5B4
:101CC00001A90446FEF7C2FA00B9206002B010BDB7
:101CD00073B50D4601A90446FEF7B8FA20B90146CE
:101CE00020461DB9FEF7A2FD02B070BDFEF72CFF25
:101CF00010F0FB06F8D129462046FFF7F8F93146E7
:101D00002046FEF7AAFE042808BF0020ECE770B5C5
:101D100004468CB00E4600211546FEF75DFB00948C
:101D2000044670B931466846FFF784FA044640B964
:101D30009DF92B30002B07DB1DB129466846FFF7C4
:101D4000D6F920460CB070BD0624FAE72DE9F84F0D
:101D5000884600210446FEF73FFB054640B9D4F80B
:101D600020A0A369AAF10202934204D8C8F8003067
:101D70002846BDE8F88F6379012B17D10227064664
:101D800039462046FEF7F8FC431C38D0012838D0ED
:101D900000B901360137236ABB42F1D8C8F80060A8
:101DA000237AA66143F001032372E1E7E16A074663
:101DB000064604F13C0937B9204601F1010BFEF754
:101DC000B8FA00BB5946637909EB0700022B0DD125
:101DD00019F807300237427853EA022308BF013668
:101DE000BAF1010AC7F30807E5D1D7E7FEF704FA0D
:101DF00030F0704307F1040708BF0136F0E7012512
:101E0000CCE70225CAE70546C8E7F0B50E4699B00B
:101E100002210546FEF7E0FA044688B931466846D5
:101E20000095FFF707FA044650B99DF82B30980645
:101E30003BD4190639D49DF80670FA0703D5072458
:101E4000204619B0F0BD07996879FEF732FAFB0613
:101E500006460BD46846FEF707FF04460028EFD17C
:101E6000D6B92846FFF7F8F80446E9E7EB6983425C
:101E7000E5D021460E900CA80C95FEF7D7FC044641
:101E80000028DDD101460CA8FEF75EFE04460028BE
:101E9000D5D00428D4D1DDE7024631466846FEF7A6
:101EA0007AFD04460028CBD1DBE70624C8E72DE9FC
:101EB000F0430E4691B002210546FEF78DFA044626
:101EC00000286CD1314604A80495FFF7B3F9044605
:101ED000002872D0042862D19DF83B1011F0200137
:101EE0006DD168460095FEF7E2FC064600285AD000
:101EF00001285AD0431C5C425C4157F0B7FD0746AD
:101F0000002C54D131462846FEF77DFD04460028BA
:101F10004DD14FF0203305F13C0405F10508394659
:101F2000EB6305F152002B64C5F843302E2385F88E
:101F30003C30102385F84730FEF766F932462146DB
:101F40004046FEF7C5F905F15C031A4651F8040B4B
:101F5000994242F8040BF9D12E234FF00109069A59
:101F6000404685F85D30FEF7B3F904A885F8079080
:101F7000FEF74CFF0446D0B90B9839461630FEF7F1
:101F800043F932460B994046FEF7A2F90B9B10220B
:101F90002846DA7285F80790FFF75EF80446204677
:101FA00011B0BDE8F0830724A7E70224A5E70022CB
:101FB00031466846FEF7EFFCF1E70824EFE7062418
:101FC000EDE7F0B50D46A1B0022104461746FEF735
:101FD00003FA002878D1294608A80894FFF72AF9BF
:101FE000002871D19DF84B3013F0A00F6ED10F9BDC
:101FF0006D4603F120061868083353F8041C2A467E
:10200000B34203C21546F6D108AE14AD0FCE0FC5CC
:102010000FCE0FC596E80F0085E80F00394614A8CB
:10202000FFF708F948B9169A0A9B9A4203D1189A01
:102030000C9B9A4203D0082046E0042844D114A8FF
:10204000FEF7E4FE00283FD11B990DF10D030DF1C1
:102050001D0001F10D0253F8045B834242F8045B5A
:10206000F9D11888012510809B7893709DF80B306A
:10207000DA0658BF43F02003CB72E571CB7ADB065A
:102080001BD50A9A169B9A4217D06079FEF711F970
:1020900001462046FEF7C0F80146C8B12046FEF7CB
:1020A00048F988B994F85D302E2B06D1169A04F1C0
:1020B0005C01601DFEF70CF9E57108A8FEF7D4FD80
:1020C00010B92046FEF7C8FF21B0F0BD0620FBE79F
:1020D0000220F9E7F0B595B0064601910221FEF71E
:1020E0007BF90446002833D14FF0203302AF054678
:1020F00002937B60C7F80730019B1B781F2B20D809
:102100009DF80830E52B22D01DB16B1EFA5C202A09
:1021100035D0002108A808960A91FEF787FB0446EF
:10212000B0B9012108A8FEF70FFD98BB0F9A45B37F
:102130003B4603CB1060516019889B7811819372E4
:1021400021E001A8FEF7A5F8B0F5803F03D30624EF
:10215000204615B0F0BD58F039FB40F2B51158F0EB
:1021600001FB0028F3D01D4A12F8013B13B198423D
:10217000FAD1ECE7FF2822D80A2D28D9E7E71D4637
:10218000C2E7E523137001233046F371FEF764FFC5
:102190000446DDE70428FBD1002DD9D0012108A891
:1021A000FEF7B0FC04460028D2D1202201460F9849
:1021B0003EF03AFA08220F9BDA720F9AB8E7092D1F
:1021C000C5D814AB020A2B44013503F8482C14ABD4
:1021D0002B44013503F8480C8EE700BF7BA60808A6
:1021E0002DE9F04F1C4600238BB0D0F800804371DE
:1021F000154603790DF11F02029140460521019316
:1022000000F02CFB9DF81F30DA0700F189825E0791
:1022100000F1888208AA0321404600F01FFB30B974
:10222000089A531EB3F5004F01D21A4201D0012380
:1022300008935DB1A5F500725B4B9A4203D9132058
:102240000BB0BDE8F08F6B1E2B42F8D1002C00F0D4
:102250006B82149BB3F5007FC0F06682019B002B5C
:1022600066D0012300222146404600F0D3FA08B18F
:102270000120E5E794F8FF2194F8FE3143EA0223B8
:102280004AF65522934201D00E20D9E7019B04EB78
:10229000031303F5D77193F8B231002BF4D001F199
:1022A0000800FDF7A9FF074601F10C00FDF7A4FFA8
:1022B0000990DDF824A0BAF1150FE5D9B5F5813FF5
:1022C000BDD2029B6A0A13F002030593029B42D01F
:1022D00003F00703022B00F03582029BD80740F180
:1022E0003182002A40D14FEA1A353048012630F8B1
:1022F000023B0BB1AB4235D9BAFBF6F540F6F573AC
:102300009D424FF0200394BF05EB45050235049331
:102310008BBF4FF0020901356D004FF001094FF0FE
:1023200001039CBF6D08033505F2FF156D0A2CE211
:1023300009AA0121404600F091FA002898D1029B99
:1023400013F0080F099B14BF00273F27BB429BD304
:10235000DB1B0993ADE7D907C3D470E75200F8E15E
:102360001346FDE17600C2E71646C5E7B9F1020F54
:102370001ED14FF6F5700399814208D9002A40F02A
:10238000DD817600402E00F239823246A9E740F620
:10239000F5700399814213D8002A7FF475AF72005B
:1023A000802A9ED970E700BF00FEFF008EA60808B5
:1023B00040F6F572039991423FF666AF4FF001097E
:1023C0004FF400720021204605933EF02DF9D74AC4
:1023D000059BB9F1030F1168A373C3F307232160B1
:1023E0005168E3734FF0010361601189927A218192
:1023F0004FF00201A2724FF00002237414BF0B468B
:102400001346BAF5803FE272217366736274A37457
:1024100080F01D8184F813A0CAF3072A84F814A061
:10242000F8234FF0000A394604F11C0063753F237E
:1024300084F819A02376FF2384F81BA0A376FDF768
:10244000E3FEB9F1030F40F0088157F00FFB01469E
:1024500004F14300FDF7D8FE294604F12400FDF7FE
:10246000D3FE022304F1470284F82DA084F82C3017
:10247000012384F82EA084F83030062384F82FA09E
:1024800084F83230802384F831A084F84030292346
:1024900084F833A084F84230A54B03F1100153F8BF
:1024A000040B8B4242F8040BF9D1198840469B7803
:1024B0001180214693704FF055033A4684F8FE315F
:1024C0006FF0550384F8FF31012300F0B2F9824622
:1024D00000287FF4CDAEB9F1030F3ED10123BA1D20
:1024E0002146404600F0A5F94FF4007251462046BF
:1024F0003EF09AF8522341227221237004F5F470C1
:1025000063706123E270A37084F8E731039B84F861
:10251000E41184F8E511591E84F8E621FDF774FEF4
:102520000223FA1D214684F8EC314FF05503404652
:1025300084F8EDA184F8FE316FF0550384F8EEA124
:1025400084F8FF31012384F8EFA100F072F9012330
:1025500021464046FA1800F06CF9149B00212046F1
:1025600023F4FF7222F001023EF05EF8B9F1030F8E
:1025700040F09080F8232370FF236370A370E37012
:1025800023716371A371E37123726372A3720F23CA
:10259000E372149B5B0A0393039B21465A46404611
:1025A000AB4228BF2B469A4600F043F9014600286B
:1025B0007FF45EAE4FF4007220463EF035F8B5EB86
:1025C0000A05D344E8D1049BB9F1030F18BF1E4696
:1025D000039B5A4621464046B34228BF33461D4618
:1025E00000F027F900287FF443AE761BAB44EFD10F
:1025F000B9F1030F58D0099BB3F5803F56D2B9F11A
:10260000020F0CBF04250125019B002B50D0002296
:1026100001232146404600F0FDF8024600287FF4E1
:1026200027AE019B04EB031383F8B251012321462B
:10263000404600F0FEF800287FF41AAE0022404623
:10264000114600F00BF9003818BF0120F8E551469B
:1026500004F12000FDF7D8FDE2E657F007FA014645
:1026600004F12700FDF7D0FDC5F3072304F12B0289
:10267000A575E375802384F82430292384F8263057
:102680002C4B03F1100153F8040B8B4242F8040B5E
:10269000F9D10AE7B9F1010F2749204618BF6FF0B9
:1026A0000701FDF7B1FD74E70C25ADE70625ABE7A3
:1026B000029B1B07C2D44FF40072019920460126E9
:1026C0003DF0B2FF5523099A394684F8FE31AA231A
:1026D0003A4404F5E37084F8FF31019B84F8BF614C
:1026E00084F8BE3184F8C13143F6C16384F8C06117
:1026F00084F8C251B2FBF3F2FE2384F8C52184F8BA
:10270000C331930843F03F0384F8C431FDF77CFDE7
:10271000099904F5E570FDF777FD3346019A86E7E0
:1027200003208DE50A208BE5112089E5BAA508086C
:10273000C6A50808DAA50808F8FFFF00059B002BCE
:102740003FF4A2AD002A7FF40BAE4FEA5A452F4862
:10275000012230F8023B1BB1AB427FF6FFAD0023F4
:102760002B4EBAFBF2F08500A0F57F40F63805F25B
:102770000725B0424FEA55253FF686AD16461A4664
:1027800000234FF0030904932023049807EB030B65
:10279000DDF820E0B9F1030F05EB000C0EF1FF307E
:1027A000CEF1000EDC44604400EA0E00A0EB0C0009
:1027B00006BF1B1883442D18C7EB06108444E2455E
:1027C000FFF462AD0498B9F1030FAAEB0000A0EB8F
:1027D0000300A0EB0500B0FBF6F003907FF4C6AD5C
:1027E0004FF6F570039981423FF6EAAD002A7FF477
:1027F0004BAD012E7FF648AD7208A3E7059B002B79
:10280000A3D1802E3FF640AD324675E59CA6080860
:10281000FFFFFE0F10B50C4611461A4638B123468D
:1028200004303DF08FF9003818BF012010BD04209E
:10283000FCE710B50C4611461A4650B12346043049
:102840003DF0A4F910F11E0F05D0003818BF01208B
:1028500010BD0420FCE70220FAE7000070B50D4629
:1028600014460646002833D001F00703234AD15C02
:1028700000292FD0002204303DF0B0F9062D27D8D2
:10288000DFE805F008050A162619190006202AF0C7
:1028900017FE2060002070BD062805D14FF400739C
:1028A00023802388B360F5E72AF00AFE2080F8E74A
:1028B00001232360EEE7062801D0430806D1336ADE
:1028C000002B0CBF042300232370E3E70123FBE765
:1028D0000420E0E7062DFBD801A353F825F000BF44
:1028E000952800088D2800089D280008B1280008B8
:1028F000D1280008BF280008BF280008B8D1070861
:10290000086833F010BA000037B51D46043001AB3B
:102910001446FEF769FF38B1064B1B5C4FF0FF34DD
:102920002B60204603B030BD019BA342F9D01C238D
:10293000F4E700BFF8D1070813B51C46043001AB1B
:10294000FEF7BDFE30B1044B1B5C4FF0FF3023603F
:1029500002B010BD0198FBE7F8D107082DE9F84354
:10296000814650680E469046002430F02BFD2E4ADA
:1029700001382E4910F8013FD3B92C201DF0A0FBDF
:1029800007460546D8F8000047F8046B30F01AFDFA
:1029900039460246E3B209F14400FEF7C9FD064696
:1029A000C0B328461DF0A6FB214B985D29F070FFAF
:1029B000782BDFD8712B08D8612B24D0622B25D03F
:1029C0002B2BD7D144F00304D4E7723B062BD1D88C
:1029D00001A555F823F000BFF52900087529000866
:1029E000112A00087529000875290008FB2900082C
:1029F000012A000844F00104BCE744F00A04B9E7E6
:102A000044F00604B6E744F01204B3E70E46B1E71B
:102A10001646AFE7E30603D529693846FFF79CF869
:102A20002846BDE8F88300BF48D207080CD2070843
:102A3000F8D1070830B587B004460846114603AD03
:102A40001A46064B0195009303232AF035FA2A46CD
:102A500021460020FFF782FF07B030BDE0D1070814
:102A60001FB50623CDE9011201AA03490393FFF71D
:102A700075FF05B05DF804FB48D2070813B504469E
:102A8000084601912AF090FC019B0246034920462A
:102A900002B0BDE8104000F0DDBF00BFC0D10708A4
:102AA000022970B5044615461E4613D15368012B02
:102AB0000AD0022B0CD01BB91168201DFFF74CF86F
:102AC000A3692B60002070BD81692B681944F4E76D
:102AD0000169FAE701290AD10430FEF743FF002813
:102AE000F0D0084B1B5C4FF0FF303360EBE704295C
:102AF00006D14368002BE5D00430FEF76BFFEEE70C
:102B00001623F0E7F8D1070807292DE9F74F9DF8BC
:102B1000305010D8012905D93F2300F8013B00238C
:102B2000037001E00029FAD1012994BF002001209F
:102B300003B0BDE8F08F10EE904A002C044622DA74
:102B4000B4EE400BF1EE10FA1DD6B1EE400B2D2580
:102B500004F8015BB0EEC07B02F020089FEDCE6B65
:102B6000B4EE467BF1EE10FA12DD88F0490388F0EE
:102B70004605E11C237088F04E03A57063700023A6
:102B8000081A0B70D4E7002DE4D004F8015BE1E7EC
:102B9000B4EE400BF1EE10FA08D748F04E0388F07F
:102BA0004105E11C23706570A370E8E7002BA4EBDE
:102BB000000542F02002B8BF0623491B672A01F135
:102BC000FF3662D1B5EE400B002B08BF0123F1EEBA
:102BD00010FA00F0A580B7EE007BB4EEC70BF1EE63
:102BE00010FA40F1CB800027DFF8C4E24FF4807C7C
:102BF000DFF8C0A23D469FEDAA6BB4EEC60BF1EE26
:102C000010FAACBF4FF031094FF03009BEEC025B57
:102C1000B4EEC05BF1EE10FA06DD0AEB070B65447B
:102C20009BED005B20EE050B08374FEA6C0C482F3C
:102C3000ECD1B4EEC70BF1EE10FA40F18380B4EEA4
:102C4000C60BF1EE10FA78DB002DB7EE000B14BFC7
:102C50002D272B27662A05D0672A40F08480042D73
:102C600000F38180672A84F8009004BF05F1FF37E4
:102C7000DB195F1CB742A8BFCB1E002B64D1013407
:102C80001E461F464FF0FF3CB0E0B5EE400BF1EEA4
:102C900010FAA0D1662A43D15D1C0027B542BC467C
:102CA0003D46A8BFCB1E66215E1C652923EAE37E54
:102CB00040F0C1800EF10106B2EE046B00234FF02C
:102CC0002E0B0193019B9E4200F3BE80662A40F0CA
:102CD000F380B54240F34481F7B1632D4FF00A0110
:102CE00048F045086770CABF6423A61CE61C84F838
:102CF0000080C2BF95FBF3F33033A370344695FBDD
:102D0000F1F393FBF1F201FB135501FB1232303565
:102D1000303204F8022B75700023201A237007E765
:102D20005D1DB5424FF00006A8BFCB1F652A1146B6
:102D30007BD12B27B4463546B7E7B2EE047B01358D
:102D400020EE070B2D2785E72E211E46023404F8BE
:102D5000011C3021013D6AD00EB9374692E7013E91
:102D600004F8011BF6E7CE1F9E4203DC672A60D001
:102D7000A1F1080311460026B44696E70027DFF8C4
:102D800034E14FF4807CDFF828913D46BEEC027BB5
:102D9000B4EEC07BF1EE10FA06D809EB070A6544E1
:102DA0009AED007B20EE070B08374FEA6C0C482F9A
:102DB000ECD1FDEEC07B17EE907A092F04DD0135D2
:102DC0009FED397B20EE070B662A11D1B54217DA49
:102DD00059190131B14205DB761B012EA6F1020320
:102DE00008BF0023EE18AC460027013666215CE7D9
:102DF000652A05D0672A0DD0114600262B27BBE790
:102E0000CE1F9E4201DCA1F1080300262B2765217D
:102E1000B4464AE75F1DB74200DBCB1F9D4201DB92
:102E20006721EAE7691C5B1ADCE7374682E72F4631
:102E300028E733469EE767297FF43EAF002BD6BFD5
:102E400001267646B64637E7BDEEC07B04F1010A9F
:102E500017EE103A002BA8BF03F13009019BB4BF55
:102E60004FF030095FFA89F99C4584F8009006D14B
:102E7000BEF1000F03D004F1020A84F801B0B8EEED
:102E8000C77B019B5446013330EE470B019320EE84
:102E9000060B17E7AFF30080FFFFFFFFFFFFEF7F99
:102EA0001450FFFFFFFFEF3F9A9999999999B93F05
:102EB000B876070800770708B1EE047BB4EEC70BBD
:102EC000F1EE10FA24DB631E4FF030091E7803F197
:102ED000FF3C2E2E2ED0A6F1300ABAF1090F2BD9C5
:102EE00001331E78302E13D193F801C0BCF12E0FA0
:102EF0002FD166292DD02D2F83F800C05E7026D1EA
:102F0000013D08BF2B2721468B4224D33121197064
:102F1000672A7FF4E1AEBEF1000F3FF4DDAE234639
:102F20001C46013B14F8012C302AF9D02E2A08BF88
:102F30001C46D1E66346C9E7392E02D001361E7021
:102F4000CFE798428CF80190F4D10346C9E70135E8
:102F5000D9E70134D7E711F8016C01F80169D3E72B
:102F6000B1EE047BB4EEC70BF1EE10FAABDAB3E6C8
:102F7000044608B531B1054B8A6B0360002309682C
:102F80002CF000FB20461DF067F800BF948707086F
:102F90002DE9FF471E464518019212B1023A222A36
:102FA00034D80446AC42274639D214F8010B1EF03F
:102FB0005DF980460028F5D13B782B2B29D1274697
:102FC000E91B384601AA002427F037FF0744B94619
:102FD000A9454B4626D3B8F1000F00D064426400E7
:102FE00044F00104BB4209D01F46AF423B4641D2E8
:102FF000187801371EF03AF90028F6D12049019AD5
:1030000020482CF083FA3146FFF7B2FF1E4829F022
:1030100049FA2D2B04BF27464FF00108D0E74FF0A7
:103020000008CDE719F8012BA2F1300ABAF1090F17
:1030300009D95F2ACCD042F02002A2F161011929FE
:10304000C9D8A2F1570A01995145C4D9204636F092
:103050004BFF28B9019B03FB04A494EA4403B7D5B2
:10306000019B4246E91B03A803972DF067FC039BD5
:103070000446B7E7C2D1204604B0BDE8F08700BFE0
:103080005D77070884880708487707080000000074
:103090002DE9F04F2DED048B83B004469146461880
:1030A000DDF840800193B442254680F031812878D4
:1030B00001341EF0DBF807460028F4D12B782B2BC7
:1030C00009D125468246B4420CD300239FED949B40
:1030D0001F4618468AE02D2B03D125464FF0010AE2
:1030E000F1E782462B7843F02003692B31D1AB1CEA
:1030F0009E4240F205816B7843F020036E2B40F036
:10310000FF80AB7843F02003662B40F0F980EB1D85
:10311000EC1C9E421AD9EB7843F02003692B15D1A1
:103120002B7943F020036E2B10D16B7943F02003F1
:10313000692B0BD1AB7943F02003742B06D1EB79CB
:1031400043F02003792B01D105F108049FED768B24
:1031500014E06E2B2AD1AB1C9E4240F2D1806B78DA
:1031600043F02003612B40F0CB80AB7843F0200389
:103170006E2B40F0C580EC1C9FED6D8BBAF1000FFB
:1031800001D0B1EE488BA54209D0B442234680F06D
:103190009980187801341EF069F80028F5D16A4941
:1031A0006A482CF029F94146FFF7E2FE0023B2EE0F
:1031B000045BAC461846194600939FED599B9FED62
:1031C0005E6B644614F801EBAEF1300BBBF1090FF6
:1031D00039D8022923D15E4A904202DC0A2202FB3E
:1031E00000B0A6425FD8009A02B14042034413F5F2
:1031F0009A7F05DC03F233139FED517B29EE079B89
:1032000013F1160F53D35B42B2EE040B01EE103AEA
:10321000B8EEC11B40F074FF89EE008BAEE7B4EE50
:10322000C69BF1EE10FA0BD507EE90BA0129B8EE65
:10323000E77BA9EE057BB0EE479B31D1013BD0E7A0
:1032400029B90133CDE721B9BEF12E0F03D10121F8
:10325000C7E7022917D04EF0200BBBF1650F12D142
:10326000A64258D99CF801102B2905D10CF1020473
:10327000B44294D00221B4E72D2913D101220CF1DC
:1032800002040092F4E7B9F1000F04D04EF0200BD5
:10329000BBF16A0F09D0BEF15F0FA2D06446A2E76E
:1032A00000219EE70221A4468BE74F469BE707EEED
:1032B000903AB2EE040BB8EEE71B40F021FF29EE86
:1032C000008B5BE77FF46BAF57B1B0EE481B9FED0F
:1032D000140B03B0BDEC048BBDE8F04F2BF036B9F6
:1032E000019B23B1B0EE480B9FED0D1BF1E7B0EE53
:1032F000480B03B0BDEC048BBDE8F04F2CF05CBA7A
:10330000BAF1000F3FF44BAF2C469FED058B38E729
:103310004FF0000AD9E63FF442AF64E7AFF3008014
:103320000000000000000000000000000000F07F2E
:10333000000000000000F87F5A62D7D718E77469D0
:103340000DC6402C18FA31006977070884880708F1
:1033500064666606084611464CF018BE37B5054649
:10336000084601913DF098F9044620B102466B6889
:10337000019928689847204603B030BD2DE9F74FE2
:1033800089469DF8301017460D9A11F0DF0F06465A
:10339000A2EB07023DD030290CA8254913BF804677
:1033A0004FF0100A88464FF0010A13F0800535D01F
:1033B00002EBD2746510A2EB6404002D35DDAB4640
:1033C000DA45524673684146A8BF5A4630680192B2
:1033D0009847019AABEB020BBBF1000FF0DC2FB169
:1033E0003D4473683A46494630689847002C0CDDE6
:1033F0002544A245574673684146A8BF2746306812
:10340000E41B3A469847002CF3DC284603B0BDE89D
:10341000F08FDFF820804FF0100AC6E713F00104A8
:1034200001D11546C9E71446D9E70025D7E700BF03
:1034300039670708286707082DE9F043064689B071
:103440000020119D9DF84880139F8DF80F000AB34E
:1034500081421ADA2D2249428DF80F20109A08ACC9
:103460000DF11009A2F10A008E46B1FBF3FC03FB3B
:103470001C126146092A8CBF1218303204F8012D43
:103480004C450ED07345EFD90BE0A80727D52B226A
:103490008DF80F200029E1D130230DF11F048DF8A4
:1034A0001F3015F040099DF80F301CD023B30122C6
:1034B0002B460DF10F013046013FCDE90082FFF7A9
:1034C0005DFF814608AA2B4621463046121BCDE9F6
:1034D0000087FFF753FF484409B0BDE8F0836A074F
:1034E000D8D52022D4E7002BECD004AA9442E9D905
:1034F00004F8013C013CE5E79946E3E72DE9F04F8C
:1035000093B081461D46C8079DF874300C4690461E
:103510001C9E0693DDE91E7A0BD4A10703D1226815
:103520007A4B9A4205D0204629F0CAFF400040F06D
:10353000010416F0810306D1069A302A03D15745BB
:10354000B8BF57469A4620460DF1280B2DF008F9D2
:10355000002818DBB20712D52B230DF129028DF8B4
:103560002830F006EDB21DD5B8F1020F0DD1302193
:10357000134603F8021B691C51701A4612E07307C8
:1035800001D52023E9E75A46EBE7B8F1080F61D1EE
:10359000B1054FF03003137049BF05F10E0301323E
:1035A00053700232A2EB0B03002116F0200F1170B2
:1035B0000EAA05930CBF0B462C23BAF1010F0B92F8
:1035C0004FF01002C8BF46F040068DF82710CDE935
:1035D0000C2116F04002CDE90253079244D0234655
:1035E0000DAA0BA8CDE900810CA92CF099FF037856
:1035F00080462D2B06D18DF8273000F101080D9B58
:10360000013B0D93BAF1010F3CDD0D9D079B554524
:10361000B8BF55462BB19DF8273003B10135059B46
:103620001D44AF422BDD16F00103A7EB050527D1A2
:103630002C461D4626F001064CB120230194344946
:103640004846009300231A46FFF798FE04463023AD
:10365000069319E0B8F1100FA4D13021134603F8F6
:10366000021B05F1170187E70AAB0DAA0CA90BA8ED
:10367000CDE9008323462CF053FF8046C2E70025A6
:103680000024D7E700252C46079BDBB19DF82730A7
:1036900053B1002301220DF127014846013FCDE936
:1036A0000032FFF76BFE0444059B5BB1002301224F
:1036B00059464846CDE90032059AFFF75FFE059B63
:1036C0000444FF1A069BBAF1010FC8BF57460D9A72
:1036D00041460093484633460197FFF74FFE0444A6
:1036E0004DB120230A4948460195009300231A460C
:1036F000FFF744FE04440B980EAB984201D01CF037
:10370000F9FC204613B0BDE8F08F00BFE88D070834
:103710004CD008082DE9F04316468BB00746984672
:10372000B207DDF848903DD416F0040F0CBF00231B
:1037300020230A4600932021139B02A8FFF7E4F9F7
:10374000F30504460DD5431C1F2B0AD80AAA0021F5
:103750001444252204F8202C0AAA1C461A4402F814
:10376000201C16F040051FD09DF808302F2B4FF07D
:1037700000031BD8012202A9384609F1FF39013C98
:10378000CDE90032FFF7FAFD0DF109010546334698
:1037900022463846CDE90089FFF7F0FD28440BB0FA
:1037A000BDE8F0832B23C4E702A9F0E702A91D4678
:1037B000EDE700002DE9F04F074689B014460025DB
:1037C000DFF88C820B461E4613F8012B92B9B142EA
:1037D00013D30B78002B00F03481013120234FF0FC
:1037E000000A084610F8012B82B94FF000094FF08B
:1037F0000A0C2AE0252AE6D1E9E7A6EB01097B6855
:1038000038684A464D4498473146E2E72D2A03D1AD
:103810004AF0010A0146E4E72B2A02D14AF0020AE3
:10382000F8E7202A02D14AF0040AF3E7212A02D15C
:103830004AF0080AEEE7302AD7D14AF0400A134688
:10384000E8E70CFB0929A9F130090E4611F8012B14
:10385000A2F130000928F4D92E2A33D172782A2A0D
:103860000FD00A464FF00A0C0021164612F801BB91
:10387000ABF13000092807D80CFB01BBABF13001DC
:10388000F3E7023654F8041B21EAE17B32786C2A14
:1038900008BF01363178002900F0D38078295FD83D
:1038A000572912D8472959D8442959D9073452469B
:1038B000384624F00704CDE9009BB4EC020BFFF777
:1038C00029FF5FE04FF0FF3BE0E7A1F15802202A1B
:1038D00046D801A050F822F0133A000861390008D8
:1038E0006139000861390008613900086139000850
:1038F0006139000861390008613900086139000840
:103900006F39000891390008F7390008AD38000810
:10391000AD380008AD380008613900086139000889
:10392000613900086139000861390008613900080F
:103930006139000861390008333A0008A5390008E8
:1039400061390008CF39000861390008133A0008CE
:103950006139000861390008133A0008502968D01D
:103960007B68012231463868013598470BE054F8EE
:10397000042BCDE9003953463AB104223349384685
:10398000FFF7FCFC0544711C1CE705224146F6E7E5
:1039900054F8042B07A98DF81C200122CDE9003929
:1039A0005346ECE707A954F8040B04931DF035FACD
:1039B000BBF1FF3F0146049B04D0079A934538BFF3
:1039C000CDF81CB0079ACDE900395346D7E754F833
:1039D000041B0593084604913CF05EFEBBF1FF3FDB
:1039E0000246DDE9041302D0584528BF5A46CDE906
:1039F00000395346C3E7CDE9023961230122CDF8EE
:103A000004A000930A2354F8041B3846FFF714FD62
:103A1000B8E74A1C21F00F01CDF804A002F006021D
:103A20000F39CDE90239C9B2C2F110030091002269
:103A3000E9E7CDE902396123CDF804A00093102312
:103A4000F5E7284609B0BDE8F08F00BF1467070806
:103A5000196707080EB403B503AA52F8041B0192B4
:103A6000FFF7A8FE02B05DF804EB03B0704700005A
:020000040802F0
:10000000034B1B685B685A690260586100207047A7
:10001000D0D00220034B1B685B685A6912685A6192
:10002000704700BFD0D00220C4600561466187617F
:10003000C0F81C80C0F82090C0F824A0C0F828B0F8
:10004000C0F82CD080ED0C8B80ED0E9B80ED10ABBA
:10005000C0F808E0FFF7D4BF08B5114B1B6859681A
:100060004B690BB92EF0E0FC1A6858604A611846DB
:10007000C468056946698769D0F81C80D0F820906B
:10008000D0F824A0D0F828B0D0F82CD090ED0C8B6C
:1000900090ED0E9B90ED10ABD0F808E0012070477A
:1000A000D0D0022010B50021044600F0EDFA18B9B6
:1000B00014B120460CF0E2F910BD002100F0E4BAC2
:1000C00010B50121044600F0DFFA18B914B120463A
:1000D0000CF0D4F910BDFFF7E5BF10B501220C46B6
:1000E00000F0EAFB18B914B120460CF0C7F910BDB6
:1000F00000F0E2BB00F0A0BB2DE9F04300252B4C43
:100100000326D4F818720021013143189A0803F02D
:100110000303BA5C5B0042FA03F303F00303022B10
:10012000F2D00901D4F824328A0803EB001011B38D
:1001300000EB820103681A071AD1D4F824229A42EC
:1001400016D89A1AD4F82872C2F3011C9F424FEABB
:10015000921E4FEA4C0C4FEA121209D9D4F81872C9
:1001600017F80E8048FA0CF303F00303012B09D0B3
:1001700004308842DED1B5B1013D05F58C7334F809
:100180001300BEE706FA0CFC3F2D05F58C794CEA0E
:10019000080C07F80EC003D8013524F81920E7E74A
:1001A000C4F82C32E4E7BDE8F08300BFCCC90220DC
:1001B000F0B41A4E0122D6E98853C01AC109C0F31F
:1001C000021704096B5CBA404FEA901C032723EA2C
:1001D00002036B54A508D6F8BC3204F00301B3EB5C
:1001E000901FD6F8180288BFC6F8BCC210F80C20C1
:1001F0004900013407FA01F304F0030122EA030283
:100200004B004255A508D6F81802425D42FA03F3A6
:1002100003F00303022BEBD0F0BC7047CCC90220E3
:100220000B46194A002123F00F0370B51C1A174D15
:100230000646E400C5F82832C5F81802A2FB0424DB
:10024000640AA3EB841326442246C5F82432C5E988
:10025000874620F0E9F90021A200D5F820020732F4
:10026000D20820F0E1F90A4A0023012110684FF07A
:10027000FF32C5F8BC3240680381C5F8B432A5F836
:10028000B012C5F8B82270BDF32C23FACCC90220F5
:10029000D0D00220034B1B685A68138901331381A5
:1002A000704700BFD0D00220034B1B685A681389E7
:1002B000013B1381704700BFD0D00220034B1B6865
:1002C0005B681889003818BF01207047D0D0022021
:1002D000F8B51E4B00221E4C03271B6804F10805CD
:1002E00004F5FA7659680B8901330B81C4F8B422FE
:1002F000C4F82C2255F8042F13071AD1D4F824027D
:10030000824216D3101AD4F82812C0F301138A427D
:100310004FEA901C4FEA43034FEA101009D2D4F879
:10032000181211F80CE04EFA03F202F00302012A4F
:1003300002D0AE42DED1F8BD07FA03F343EA0E0362
:1003400001F80C30FFF7D8FEF3E700BFD0D0022051
:10035000CCC9022081B3F8B5041F184E032704EB63
:10036000810554F8043F1A071AD1D6F8240298429E
:1003700016D8181AD6F82812C0F3011299424FEA7B
:10038000901C4FEA42024FEA101009D9D6F8181211
:1003900011F80CE04EFA02F303F00303012B02D034
:1003A000A542DED1F8BD07FA02F242EA0E0201F8D8
:1003B0000C20FFF7A1FEF3E7704700BFCCC9022075
:1003C0002DE9F04F5A4C85B0D4F82C32002B00F0B8
:1003D000AB80D4F81C3200269A00C4F82C62002AA4
:1003E00043D00025A908D4F8180205F00303415CA6
:1003F0005B0041FA03F303F00303032B41D0013503
:100400009542EFD3D4F82C32002BE6D16AB300200A
:100410004FF0030A4FF001094FF00208064605E0CD
:10042000BEF1010F4AD0013696421ED2D4F81832DE
:10043000B70806F00305D95D03EB960C6D0041FA91
:1004400005FE0EF0030EBEF1020F2AD0BEF1030F1F
:10045000E6D108FA05F50136002021EA0501D95553
:10046000D4F81C329A009642E0D3324B00221B682B
:10047000C4F8BC225A681389013B138105B0BDE85A
:10048000F08F28460135FFF737FED4F81C32B5EB64
:10049000830F4FEA8302A5D3D4F82C32002B9CD1D2
:1004A000B4E70028BFD00AFA05F5012021EA0501CA
:1004B0008CF80010D4F81C329A00B4E7F308D4F892
:1004C000202206F0070B12F803E002EBD60201939C
:1004D0004EFA0BF0C307E6D5D4F824023101415897
:1004E00000EB0610A1B102AAB1210BF0C1F9DDE9C0
:1004F000013242B10CF012FADDE902010CF0DEF932
:100500000CF022FA019BD4F82012CA1811F803E06B
:1005100009FA0BFB2EEA0B0E82F800E0D4F8183231
:1005200003EB070CD95DBEE7D4F81C329A006DE7E7
:10053000CCC90220D0D00220054B002005491B6801
:100540005A68138901331381C1F82C02FFF738BFB1
:10055000D0D00220CCC902204A4A00232DE9F04F16
:10056000D2E98941D2F818E21F46D2F81C22091BB1
:1005700083B0994601601E469C461C46194643605E
:1005800083604FEA8208C360BA4601930361436106
:1005900083619EF800304FEA4A0A43FA0AF303F0F7
:1005A0000303012B38D0022B5BD0002B51D001313B
:1005B00088450CBF0125002532D08B0801F0030AC5
:1005C0001EF803304FEA4A0243FA02F212F0030225
:1005D00014BFAB464FF0010BBBF1000F45D1012A10
:1005E000D9D15D461346012C21D0022C02D142699B
:1005F000013242614C4501D9A1468461DBB98B08C7
:1006000001F0030A1EF803304FEA4A0A43FA0AF3DC
:1006100003F00303012BC6D101361C464660C6E732
:10062000012B14BF2B4645F00103012CDDD10269DB
:1006300001320261DEE7BC4502D96746C0F80CC052
:10064000CDB1019B36011B01C0E9016303B0BDE8D8
:10065000F08F019A0CF1010C1C460132019282606C
:10066000A5E7013601344660A1E7012A14BF2B46F5
:1006700045F00103B7E78B08AC4601F0030A1EF80A
:10068000033088E7CCC902200F302DE9F843060972
:1006900052D0674B1B685B681B89002B4CD1654CA3
:1006A0000D46B4F8B032002B0CBF4FF0010E4FF0E6
:1006B000000E45D1D4F8BC02D4F81C72874238D958
:1006C000D4F818C2411E002261441AE00132964259
:1006D00050D913F00C0F1ED10132964240F29E8089
:1006E00013F0300F1CD10132964240F29A8013F081
:1006F000C00F1AD10132964240F296800130B842C2
:1007000017D211F8013F13F0030FDFD013F00C0FD5
:100710004FF00002E0D013F0300F4FF00002E2D0B3
:1007200013F0C00F4FF00002E4D001300022B842B5
:10073000E7D3BEF1000F12D000231846BDE8F883BE
:10074000D4E9AD239A42B5D336F0E6F8D4F8BC022A
:10075000D4F81C72B842EFD24FF0010EB0E736F079
:10076000DBF8D4F8BC02D4F81C724FF0010E8742BB
:10077000A6D8E1E78000811A012A01F1010703D11F
:10078000431C9B08C4F8BC32012307F0030E4FEA58
:10079000970802310EFA03FE1CF80890884203FA0B
:1007A0000EF343EA09030CF8083013D34FF00208A4
:1007B00001F003034FEA910CD4F818E201315B0019
:1007C0001EF80C90884208FA03F343EA09030EF876
:1007D0000C30EDD2D4F824821201D4F8B4020021F6
:1007E00008EB071306444FEA07191846C4F8B46229
:1007F0001FF01AFFEA0703469FD50022D4F8200213
:10080000F90807F0070748F809200122445C02FABA
:1008100007F7274347541846BDE8F88380000130A6
:10082000A9E780000230A6E780000330A3E700BFFD
:10083000D0D00220CCC90220044B1A685268128919
:1008400012B908B1FFF7B4BC704700BFD0D0022086
:1008500010F00F021BD11749D1F82432834217D868
:1008600010B4D1F8284284420DD9C31AD1F81842E5
:10087000C3F3011099091B09615C4000014101F0BB
:100880000301012906D010465DF8044B7047002291
:100890001046704701329918880801F00301205C66
:1008A000490040FA01F101F003010229F2D01201DE
:1008B000E9E700BFCCC902202DE9F04F8A4683B09A
:1008C0000746002800F0B48000297BD0DFF878814B
:1008D000D8F800305B681D89002D79D1594801F1A5
:1008E0000F06D0F824123609D0F81C32791A9C0071
:1008F0004FEA111C01940CF1010EBEEB830F80F046
:100900009E80D0F818B24FF001094FEA9E040EF015
:1009100003031BF804405B0044FA03F303F00303F2
:10092000022B5AD023B9013505EB0903B34256D344
:100930004E4542D025D34D44B54256D2002A47D029
:10094000D0F82032C9090CF0070C5046595C41FA26
:100950000CF101F00101FFF797FE0446002837D0A3
:100960004FEA091239461FF019FED8F800305B68CB
:100970001B891BBB3846FFF71BFC204603B0BDE8B4
:10098000F08F66444FF00308CC44344604F0030370
:10099000A108D0F8185201345B006A5C644508FA7B
:1009A00003F322EA03036B54F0D1D0F8BC32B2084F
:1009B000B3EB960F88BFC0F8BC223C46204603B07C
:1009C000BDE8F08F204B1B685B681C89002CD2D0DF
:1009D0000024204603B0BDE8F08F09F101090EF1B3
:1009E000010E019B734590D1A2E70CEB0904B444BE
:1009F000A44510D9022104F00303A208D0F818522C
:100A000001345B0015F802E0A44501FA03F343EA60
:100A10000E03AB54EFD1A6EB09023C4607EB0910DD
:100A2000002112011FF000FE204603B0BDE8F08F48
:100A30000146504603B0BDE8F04FFFF725BE4FF02A
:100A4000010975E7CCC90220D0D0022010B58AB0C8
:100A50000B4C03A8FFF780FD059A049B20460092EB
:100A60000849039AE2F7F6FF069A099B20460649D1
:100A7000CDE90032DDE90723E2F7ECFF0AB010BD53
:100A800020670708540A0708780A07082DE9F84381
:100A9000DFF874914C49D9F824224C48E2F7DAFF88
:100AA000D9F81C1289007AD00024DFF86081484F01
:100AB000464E0EE0012D41D02E2246493046E2F747
:100AC000C9FF0134D9F81C32B4EB830F4FEA83011C
:100AD00065D214F03F0510D004F003056D00A308A3
:100AE000D9F81822D35C43FA05F505F00305022D69
:100AF00022D0032DDED16D22DFE7D9F81802A446FB
:100B00004FEA9C020CF00303825C5B0042FA03F3A1
:100B10009B0703D10CF1010C8C45F1D3ACEB040223
:100B20007F2A30D804F003056D0008EA0412394624
:100B30003046E2F78FFFD2E73D22BEE7D9F8242204
:100B400023012549D2588A422FD0244B9A422ED0D5
:100B5000234B9A422FD0234B9A422AD0224B9A42BF
:100B600027D0224B9A4228D0214B9A4225D0214BA4
:100B70009A4226D0204B9A4221D0204B9A420CBF59
:100B80004D22682299E792091D4930462CF03F0416
:100B9000E2F760FFD9F81C32B4EB830FC5D31949D3
:100BA0000A48BDE8F843E2F7D9BB542285E74C2256
:100BB00083E7532281E744227FE741227DE74222F7
:100BC0007BE7462279E700BFC00A070820670708CD
:100BD000FC0A0708040B0708109E0708548F070833
:100BE0005C810708949B070830990708647D070813
:100BF000EC7C070898890708288A070830910708BD
:100C0000E00A0708DC0A0708CCC90220F0FF0F0041
:100C1000054BDB695A68824204D8801A043053F8C5
:100C2000200070471B68F5E7CCC90220014441F25F
:100C30000553884204D398B2012838BF0120704779
:100C400003EB431310F8012B5340F2E7034B044A24
:100C5000DA610022C3F8F821704700BFCCC9022036
:100C6000041D08082DE9F84F80460D46FFF7DEFF0A
:100C7000134B0746DC690CB920461EE004F1100B4B
:100C8000E3685E460BEB83094E45B24601D3246808
:100C9000F1E756F8040B0388BB42F5D18378AB42E9
:100CA000F2D12A46414603301FF0D4FC0028EBD194
:100CB000AAEB0B0A606800EBAA00BDE8F88F00BF42
:100CC000CCC902202DE9F04780460E46FFF7CAFF47
:100CD0000246002877D1FF2E03D9404940480AF048
:100CE0003DFE404C351DD4F8F80190B1D4E97F1396
:100CF0002B448B422BD92944FFF7FAF90746E8B970
:100D00000246D4F80012D4F8F801FFF7F1F9C4F85C
:100D1000F871802D2F4638BF80273846FFF7CDF970
:100D2000C4F8F801002852D12846FFF7C6F9C4F8E4
:100D3000F80100284AD128460BF0A0FBD4F8FC317A
:100D40002B44C4F8FC31D4F8F831002BE1D0D4F8AE
:100D500000923146D4F8F8A140464D440AEB090709
:100D6000C4F80052FFF762FF0AF80900000A324691
:100D700041467870F81CBE701FF010FCB9190026AF
:100D8000CE70E369D3E90253AB4212D36D000A2D52
:100D900038BF0A25281D8000FFF78FF90028CAD028
:100DA000E26953680260D268C6601344C0E9013545
:100DB000E061E369D9685A68481C0431013AD86097
:100DC000024443F821701046BDE8F0872F46002307
:100DD000C4F8FC71C4F80032B9E700BF070B07087C
:100DE000E0860708CCC9022010B504461FF054FC69
:100DF00001462046BDE81040FFF764BF08B5FFF785
:100E000007FF008808BD08B5FFF702FF807808BD1E
:100E100008B5FFF7FDFE033008BD08B5FFF7F8FE83
:100E2000837803300B6008BD2DE9F8431D4600238D
:100E300007468846036016460B6013602B60164B0E
:100E4000DFF85890DC690CB14C4505D12B6832684D
:100E500013442B60BDE8F8833B6801333B60E268D4
:100E6000D8F800301344C8F8003004F11003E268E9
:100E700003EB8202934207D32046FFF7E9FC2B687D
:100E8000246818442860DEE753F8041B887831682A
:100E9000043101443160EDE7CCC90220041D08088B
:100EA0002DE9F8430E4B0F4FDC69DFF83C80DFF88B
:100EB0003C900CB1BC4201D1BDE8F88304F11005AF
:100EC000E36805EB8306B54201D32468F1E755F8E2
:100ED000042B414648460332E2F7BCFDF3E700BF6E
:100EE000CCC90220041D08080C0B0708206707085E
:100EF00030B50023202411F8012F0AB9027030BD4B
:100F0000120600F101051ED50BB1047028460B78BE
:100F1000114A03F07F0363B9013A12F8013F054615
:100F2000013013F0800F0BD003F07F032B700123EF
:100F3000E1E712F9015B002DFBDA013BDBB2EAE7E6
:100F400000F8013CE9E7012B04BF047028460B7848
:100F500000F8013B0223CEE7130B070838B54468BD
:100F6000054603682144994211D9037BDB0703D569
:100F7000002107480AF0F2FC01F11004806824F017
:100F8000070408342146FFF7A8F82C60A86038BD94
:100F9000E086070870B504460E4611461546FFF771
:100FA000DDFF31462A46D4E9013018441FF024FB06
:100FB00062682A44626070BD70B546680446B142FA
:100FC00028BF31460D460121FFF7C8FFA368681C02
:100FD000721B591918441FF00FFB6368A068013396
:100FE0002844636070BD012938B538BF012104462B
:100FF0000025084621606560FFF754F8237BA06058
:1010000065F30003237338BD38B505460C4601313E
:10101000FFF7E9FF6C6038BD00230160C0E90132D1
:10102000037B43F0010303737047000038B5144697
:101030000546FFF7D8FF024B2560636038BD00BF4F
:10104000950F0208037BDB0710B5044602D48068C5
:10105000FFF750F80023A36010BD13B501901020D6
:10106000FFF720F804460199FFF7BDFF204602B0C4
:1010700010BD10B5044650B1037BDB0702D4806875
:10108000FFF738F82046BDE81040FFF733B810BD31
:1010900038B5037B04460D46DB0703D5002107481E
:1010A0000AF05CFC016880682944FFF716F82368A1
:1010B000A0601D441844256038BD00BFE0860708C5
:1010C00038B504460D46FFF749FFD4E901301D4409
:1010D0001844656038BDD0E9002310B59A42044633
:1010E00002D10121FFF7D4FF0021D4E90132D1540C
:1010F000A06810BD10B50C460121FFF7E1FF047098
:1011000010BD7F29F8B50C46CEB204D80121FFF7F7
:10111000D7FF0670F8BD06F03F06B1F5006FC1F3CA
:10112000871546F0800607D265F03F050221FFF7DC
:10113000C7FF46700570EDE705F03F05B1F5803F4C
:10114000C1F3073745F0800508D267F01F07032178
:10115000FFF7B6FF457007708670DBE7A40C07F059
:101160003F07042164F00F0467F07F07FFF7A8FF33
:10117000857004704770C670CCE713B50446084606
:1011800001911FF089FA01990246204602B0BDE89C
:101190001040FFF7FFBE10B51446FFF70DFF0470B7
:1011A00010BD10B51446FFF707FF047010BD43686B
:1011B0008B422CBF591A00214160704738B5044654
:1011C0001546084662688A4203D929448A4201D8F2
:1011D000606038BDA368521A184419441FF00CFA15
:1011E0006268521B6260F4E790F9001002460378CF
:1011F000002901DB1846704703F07F0040231842A6
:1012000006D112F8013F03F0C001802904D07047D5
:1012100020EA03005B08F2E703F03F0343EA801093
:10122000EFE7431C18460133027802F0C002802A1F
:10123000F8D0704703460020994200D8704711F853
:10124000012D02F0C002802A18BF0130F4E70144EA
:101250000346002099421A4600D87047127801339D
:1012600002F0C002802A18BF0130F3E77F289DBF3B
:10127000024B185CC0F34000002070474A67070823
:101280007F289DBF024B185CC0F3C0000020704750
:101290004A6707087F289DBF024B185CC0F3800097
:1012A000002070474A6707087F289DBF024B185CE3
:1012B000C0F38010002070474A6707087F2809D8CC
:1012C000064B1B5C13F00C0F06D1A0F15F035842D4
:1012D0005841704700207047012070474A6707084F
:1012E0007F289DBF024B185CC0F3001000207047A0
:1012F0004A6707087F289DBF024B185CC0F3401067
:10130000002070474A67070808B50246FFF7E8FF64
:1013100000B12032104608BD08B50246FFF7EAFFCB
:1013200000B1203A104608BD3038092884BF20F0AB
:1013300020000738704701440246002010B5E5241C
:10134000914203D8B0FA80F0400917E012F8013B4F
:1013500030B103F0C003802B11D1431ED8B2EFE7A8
:10136000BF2B09D9F72B09D8DB0803F0060344FA91
:1013700003F303F00300E3E71B06E1D510BD0020F3
:10138000FCE7023981420B4603D20233181A40109F
:1013900070471A880239002AF4D0F6E7B2EB131F1F
:1013A00070B54FEA131416D9121B03F00F0301EBAB
:1013B000440115460E46012D31F8024B18BF346822
:1013C000013D24FA03F4A4B220F8024BF2D104B98F
:1013D000013A104670BD0022FBE7F0B5059F0024DE
:1013E000D21B2646A74210D100EB470C002401EB8C
:1013F0004701A24214D10CEB42031EB1012102337A
:101400002CF81210181A4010F0BD31F8145033F8AF
:1014100014C06544354420F814502E0C0134E1E723
:1014200031F8145035442CF814502E0C0134E0E7F8
:10143000F0B4049F0025D21B2C46AF420BD100EB29
:101440004706002301EB47059A420FD106EB420104
:10145000F0BCFFF796BF31F81560344433F81560DF
:10146000A41B20F8154024140135E6E735F81310C5
:101470000C4426F8134024140133E5E72DE9F0432A
:10148000079C0239DDF828E0154684464FF6FF78C0
:10149000A4EB0209DDE9087655B900EB42011FB162
:1014A0000123023120F81230BDE8F043FFF769BF95
:1014B00031F8024F013D4444264405EB0904AC4297
:1014C00096BF33F8024B4FF6FF744444744486EAE7
:1014D000040E360C17FA8EF74FEA144E2CF8027BE6
:1014E0003F0CD9E7022938B538BF0221044680688D
:1014F0000D4618B12368B1EB930F07D96900FEF7C9
:10150000ECFD2368A06065F39F03236038BD38B508
:1015100004460C20FEF7C6FD054623682278C3F377
:101520009D0023F0030302F00102400013432B60EF
:1015300063686B60FEF7B6FDA8602268A168C2F31D
:101540009D0252001FF02AF8284638BD00EB4100EA
:1015500002EB410210B509B9084610BD30F8023D52
:1015600032F8024D1B1B002B02DB04D10139F2E7DC
:101570004FF0FF30F1E70120EFE710B5044638B136
:101580008068FEF7B7FD2046BDE81040FEF7B2BD0B
:1015900010BD38B50C4602210546FFF7A3FF002C0D
:1015A0002B78B5BF012200226142214662F300037D
:1015B00001222B70AB68023B23F8021F090C104676
:1015C00002F10102F8D1686038BD0023C0E90033A0
:1015D0008360704728B103789B0702D48068FEF7C8
:1015E00089BD704738B505460C464968FFF77AFF54
:1015F00022782B78A86862F300032B706368A168D7
:101600006B606268BDE8384052001EF0C7BF09B980
:1016100041607047FFF7BDBF08B5FFF7D6FFBDE8D3
:101620000840FFF7F4BF920042F00202026000227D
:1016300010B4C0E901215DF8044B1946FFF7E7BF7C
:10164000F8B59DF818700421064614461D46FFF7AC
:1016500049FF87B1002C75F100030CDA624265EB9B
:101660004503317867F3000131700021716052EA5F
:10167000030104D1F8BD22462B460027F1E7D6E945
:1016800001104C1C746020F81120110C180C41EA58
:10169000034103460A46EAE72DE9F84353EC102BD1
:1016A0001E460378074610EE105AF20F62F300034D
:1016B000037047F6F07313EA164203D100237B60F0
:1016C000BDE8F8839A42F9D0C6F30A52A2F2FF3479
:1016D000002CF3DB04D10121BDE8F843FFF759BF2B
:1016E000A2F2EF38C6F31306B8F1000F46F48016E5
:1016F000B8BFA2F57878332C4FEA28183FDCC4F144
:101700003402A4F11403C4F1140406FA03F3D5401F
:1017100026FA04F4D6401D4325430024A146414641
:101720003846FFF7DFFEC7F80480B9F1000F05D097
:101730004FEA49020021B8681EF076FF9CB105FA15
:1017400004F2BB6823F81920C4F11003103409F126
:101750000109A3F12002DD4006FA04F426FA02F2A0
:10176000DE40254315434B469845A9D0BA6822F878
:1017700013502D0C013345EA0645360CF4E7A2F26E
:1017800033430C34002B04F00F04B8BFA2F22443FF
:101790004FEA2319C3E72DE9F8438F18C2F35B0220
:1017A00004460D46511C9846089EFFF79BFE237881
:1017B00029461FFA86FC68F3000323700023636048
:1017C000B942084602D3401BBDE8F88302780131D4
:1017D000A2F13003092B05D9A2F14103192B14D82A
:1017E000A2F13703B342EED2D4E901E0F0468146DC
:1017F000B8F1000F10D100EB4E0213B1023220F805
:101800001E30121A52106260DAE7A2F16103192B3E
:10181000D9D8A2F15703E5E7B9F8002008F1FF385D
:1018200002FB0C3329F8023B1B0CE1E7F8B5044638
:1018300015461E46C1B1531E4FF0FF371E44E90046
:1018400020460F310909FFF74DFE237800216FF381
:101850000003616023704DB9D4E9011000EB410130
:10186000FFF78FFD6060F8BD0127E8E700230F292F
:101870000ADC3278013D3E4402FA01F201F108012E
:1018800043EA02039BB2F2D162681039501C6060D7
:10189000A06820F81230DEE770B5456804460DB93F
:1018A000486898B10B78267803F0010306F0010030
:1018B000181A0BD14B689D4209D30BD88A68294668
:1018C000A068FFF743FEF30748BF404270BD4FF0EA
:1018D000FF30F8E70120F6E7884210B5044601D052
:1018E000FFF780FE23786FF30003237010BD88425A
:1018F00010B5044601D0FFF775FE2378C3F300024C
:10190000C2F1010262F30003237010BD88421FB5CB
:10191000044601D0FFF766FE626862B901212046E5
:10192000FFF7E0FD0123A26813806360237843F092
:101930000103237010E02378D9070FD56FF300035C
:10194000A168237001230846ADF80E3000930DF115
:101950000E03FFF76DFD606004B010BD511C204602
:10196000FFF7C0FD0123D4E90121ADF80E3000934B
:1019700008460DF10E03FFF730FD6060D6E72DE954
:10198000F8434B6805460E46144603B12AB9314662
:101990002846BDE8F843FFF725BE02F10F014FEAE4
:1019A000111803EB1111FFF79DFD14F00F04AB6844
:1019B00008BF1024D6E90102C4F1100408EB0007A7
:1019C00002EB400E002207F10041013903EB410315
:1019D0000146994601BB6FF0010C22FA04F408F1AC
:1019E000FF320CFB00FC520003EB0C0023F80C4010
:1019F000C8F1010300EB430318461EF015FE831ED9
:101A000017B133F8172092B12B786F60327862F3F8
:101A100000032B70BDE8F8833EF802CD01394CEA93
:101A2000020222FA04FC120429F802C9D2E7013F9B
:101A3000E6E7F0B50E46496885B00546144601B1A3
:101A40002AB931462846FFF7CDFD05B0F0BDFFF7B6
:101A500049FD2346A868D6E90121FFF79FFC2B78B2
:101A60006860327862F300032B70DB07EDD500234A
:101A700022097168ADF80E30994201D093420FD11E
:101A80009142E2D9B36804F00F0433F81220012325
:101A900003FA04F4013C224213D0ADF80E3008E002
:101AA000B76837F8137057B101239142ADF80E3083
:101AB000E8D8A968012348B90B806B60C5E70133FA
:101AC000DAE7BDF80E30002BBFD0F2E702460093F4
:101AD00008460DF10E03FFF780FC6860B5E773B5AB
:101AE00053680C46496806461546994206D308D8FD
:101AF0009268A068FFF72AFD002802DA23462C46E8
:101B00001D4623782A7861685340DB0713D40131DE
:101B10003046FFF7E7FC6B68B0680093AB68D4E928
:101B20000121FFF75AFC33787060227862F30003DA
:101B3000337002B070BD3046FFF7D4FC6B68B068FC
:101B40000093AB68D4E90121FFF772FCEBE7F7B52E
:101B500053680C46496806461546994206D328D86C
:101B60009268A068FFF7F2FC002822DA23460127DA
:101B70002C461D4623782A7861685340DB071AD526
:101B800001313046FFF7AEFC6B68B0680093AB687C
:101B9000D4E90121FFF721FC7060237803F00103F1
:101BA0000FB183F00103327863F30002327003B0A7
:101BB000F0BD0027DEE73046FFF794FC6B68B068A5
:101BC0000093AB68D4E90121FFF732FCE4E72DE98B
:101BD000F04F15464A680E4685B06B6804469A4237
:101BE0003EBF0B462E461D4633787168DB0721D475
:101BF0002B7813F001071DD1FFF774FCA068B668BD
:101C00003B46D5E9011C99420BD100EB4101FFF79E
:101C1000B8FB237860606FF30003237005B0BDE864
:101C2000F08F36F813203CF813502A4020F8132088
:101C30000133E8E701312046FFF754FC96F800A095
:101C40002B780AF00108D6F804C08AEA03074AF3A1
:101C5000000AA06803F00109FF4343F30003834631
:101C600007F0010E47F300079BB2BFB20093029743
:101C70001FFA8AF7D5E901120197B768A1EB0C01A9
:101C8000A7F1020A67460391BFB900EB4C01BEF110
:101C9000000F03D00123023120F81C30FFF771FB45
:101CA000606033782A78C3F30003C2F30002134064
:101CB000227863F300022270B0E73AF8021F013F76
:101CC000019B5940039B8844D919B9429BBF32F804
:101CD000021B009B00995940029B894408EA0901B4
:101CE0004FEA19494FEA184859401EFA81F14FEA64
:101CF000114E2BF8021BC7E72DE9F84F16464A682C
:101D00000D46044673689A423EBF0B4635461E4652
:101D10002B786968DB0731D4327812F001072DD1B6
:101D2000FFF7E0FBA9686D683A46D4F808C0D6E929
:101D3000013EED1A934212D101EB430100220CEB5C
:101D40004303954214D103EB4503A3EB0C035B1053
:101D5000636023786FF300032370BDE8F88F31F8D8
:101D600012003EF8126030432CF812000132E1E715
:101D700031F8120023F812000132E2E70131204667
:101D8000FFF7B0FB2F783378696807F00108AD687A
:101D900003F00109A06843F30003A5F1020C01253B
:101DA0009BB28246D6E901E247F300060F46AEEB4E
:101DB000010EB6B247B900EB4101FFF7E2FA237812
:101DC000606043F00103C7E73CF802BF013F8BEAC4
:101DD000060BD8440EEB070BBB4596BF32F802BB8F
:101DE0009B468BEA030BD94448EA090B4FEA194991
:101DF0004FEA18486FEA0B0B15FA8BF52AF8025BCD
:101E00002D0CD7E7F0B516464A680C4685B07368C6
:101E100005469A423EBF0B4634461E462778616807
:101E200033785F4017F001073AD1FFF75BFB237867
:101E300013F0010328D16168A868A768D6E9012CCE
:101E4000891A9A4211D107EB4207002300EB4202A4
:101E5000994213D102EB4101FFF793FA2B786860A6
:101E60006FF300032B7005B0F0BD37F813403CF85A
:101E70001360744020F813400133E2E737F8134051
:101E800022F813400133E3E7CDE902770197736845
:101E9000A8680093B368D4E90121FFF7EFFADDE702
:101EA0000131FFF71FFB3378A868DB4303F0010320
:101EB00003932378DB4303F001030293012301938F
:101EC00073680093B368D4E90121FFF7D7FA2B7840
:101ED000686043F00103C5E74B682DE9F04F064603
:101EE00085B00D4614460BB1536823B900237360C7
:101EF00005B0BDE8F08F81422ED1FFF708FBB44258
:101F00000546074600D104466368304669681944AF
:101F1000FFF7E8FA32680021B068C2F39D02520070
:101F20001EF082FBAB68D6F808E00022D5F804A0CA
:101F30000193F446A3680EEB4A08114602936368C6
:101F40000393039B934231D0ACF10200DDF804B05F
:101F50000023CDF800A018E0824204D1FFF7D7FAA1
:101F600004460746D0E70027CEE730F8029F9944A1
:101F70003BF8023B1946029B33F8123003FB0193F6
:101F80000099038001391B0C009100990029ECD1C4
:101F90004146881C13B10146A8F80030A1EB0E01A0
:101FA0000CF1020C013280464910CAE771603846D4
:101FB00022782B785340327863F30002327005B0F8
:101FC000BDE8F04FFFF7D9BA4B6870B50646144626
:101FD00013B11378DA0702D50023736070BD63680C
:101FE00023B90121BDE87040FFF7D3BA0846FFF7D7
:101FF0008EFA05462046FFF78AFA0121044630464C
:10200000FFF7C7FA636883B1A3681B88DB0704D5B1
:102010002A4631463046FFF75FFF0123D4E901210C
:102020000846FFF7BBF9606038B92846FFF7A5FA04
:102030002046BDE87040FFF7A0BA2A462946284648
:10204000FFF74AFFDEE72DE9F04F0C4651688FB0ED
:102050001746013105460293FFF744FA7A680021DA
