:020000040800F2
:10000000F8FF0720A9A3050863EE040851EE0408D1
:1000100065EE040875EE040885EE04080000000093
:1000200000000000000000000000000095EE040841
:1000300097EE04080000000091000508ED00050897
:1000400089A2050881EF040893EF040899EF0408DA
:10005000F98C050889A2050815EF04081BEF0408B0
:1000600021EF040827EF04082DEF04084D270508A9
:100070005D2705086D2705087D2705088D270508DC
:100080009D270508AD27050889A2050889A205084E
:10009000494B05084F4B0508554B050833EF04083D
:1000A000ADEF0408B3EF0408C5EF0408CBEF040874
:1000B000D1EF0408D7EF0408DDEF04085DF0040871
:1000C00063F0040869F004086FF0040889A20508C9
:1000D00089A205082DF0040833F0040839F004085B
:1000E00057EF040887EF0408A5EE040809F0040898
:1000F0000FF0040827F0040821F00408BD270508C4
:1001000089A20508B5960508E5EF040889A2050847
:100110003FF0040845F00408FDEF040803F004086C
:10012000CD270508DD270508ED270508FD2705086B
:100130000D280508796005088DEF040889A20508D7
:1001400089A2050889A2050889A2050899EE040874
:100150001D2805082D2805083D2805084BF0040832
:1001600089A2050889A2050889A2050889A20508AF
:1001700089A2050889A2050889A2050800000000D7
:1001800089A2050889A2050851F0040857F004085F
:1001900089A2050889A2050889A2050889A205087F
:1001A00089A2050889A2050889A2050889A205086F
:1001B00089A2050889A2050889A2050875F0040826
:1001C0007BF0040889A205080000000089A2050848
:1001D00089A2050889A2050889A2050889A205083F
:1001E00089A2050889A2050889A2050889A205082F
:1001F00089A2050889A2050842884378007843EA65
:10020000022340EA032070470B0A017043700B0C75
:10021000090E8370C1707047036A0239023B8B423A
:1002200083BFC389406B01FB030000207047024677
:1002300000F10B010020C30143EA500312F8010B47
:1002400050FA83F38A42D8B2F5D1704737B50D46DC
:10025000044620B9092000232B6003B030BD036899
:10026000002BF7D05A79002AF4D081885A8991421C
:10027000F0D118680DF10702062102F0F9FA9DF895
:10028000073003F00103184310F0FF00E2D12368A8
:10029000E2E738B50468054614F8010B20B140F2D6
:1002A000B5115AF0DDF808B12C6038BD4FF0FF30C1
:1002B000FBE70328CA7E8B7E08BF487D43EA022302
:1002C00002BF0A7D42EA002243EA02431846704711
:1002D000C2F307238A76CB760378032B01BF120C77
:1002E0000A75120A4A75704770B5C379044613B986
:1002F0000025284670BD00F13C06826B0123006892
:10030000314602F0A0FA054680B9A16BE36A626A41
:10031000CB1AE0719342EBD2A379022BE8D10A44C5
:1003200001233146206802F08EFAE2E70125E0E77A
:1003300038B5836B05460C468B4214D0FFF7D4FFCB
:10034000034670B90123224605F13C01286802F0FA
:100350006BFA0028034616BF4FF0FF340346012313
:10036000AC63184638BD0023FBE7000038B5002316
:100370000546C3714FF0FF338363FFF7D9FF04468F
:1003800018BB95F83B2295F83A3243EA02234AF625
:10039000552293421BD195F83C30EB2B03D01833F8
:1003A000DBB2012B15D803220B4905F1720040F096
:1003B000B9F840B10522094905F18E0040F0B2F8C4
:1003C000002818BF0224204638BD0424FBE703247C
:1003D000F9E70224F7E700BF7F9B0808839B080822
:1003E0002DE9F047437986B0044601F0FE0593B14C
:1003F0000DF107020621006802F03AFA9DF8073075
:10040000DA0708D41DB113F0040500D00A252846E8
:1004100006B0BDE8F08700230DF107020521206832
:10042000637102F025FA9DF8073013F0010640F0E1
:100430000F810DB15B07E9D400212046FFF796FF3D
:100440000228034603D0012824D825797DB302ADC4
:1004500004F2022104F24227A84611F8040C10B15C
:100460000846FFF7C9FE103145F8040B8F42F4D15E
:10047000277907B1013F58F827507DB1294620461A
:10048000FFF774FF0346227952B9012B0FD90137C8
:10049000032FF0D9042B07D1012606E00323F2E74E
:1004A000042BF9D0012B02D90D263546AFE794F87D
:1004B000482094F8473043EA0223B3F5007FF3D194
:1004C00094F8533094F8528058EA032804D104F188
:1004D0006000FFF791FE804694F84C10C4F8248029
:1004E0004B1EA171012BDFD894F84970BBB2E38198
:1004F000002BD9D07B1E3B42D6D194F84E9094F875
:100500004D3043EA09230FFA83F91FFA89FA1AF0EA
:100510000F0FA4F80CA0C7D194F8503094F84F00F6
:1005200050EA032003D104F15C00FFF765FE94F864
:100530004BE094F84A3053EA0E2EB5D008FB01FC8C
:100540000EEB1A1262448242AED8801AB842B0FB57
:10055000F7F1A9D3434B9942A6D84FF6F5739942C8
:1005600078D9032702310EEB05032A44032F2162B9
:10057000A562E36262635AD194F8672094F866300A
:1005800043EA022349EA03031BB2002B8CD104F196
:100590006800FFF731FE2063890001F2FF11B8EB1C
:1005A000512F81D34FF0FF33032FC4E905334FF0B0
:1005B000800323722FD194F86D2094F86C3043EAB5
:1005C0000223012B27D1691C2046FFF7B1FE10BB87
:1005D00094F83B2294F83A32207243EA02234AF616
:1005E0005522934217D104F13C00FFF705FE1E4B44
:1005F000984210D104F50870FFF7FEFD1B4B98429E
:1006000009D104F50970FFF7F7FDA06104F50A7040
:10061000FFF7F2FD6061164A6771138801339BB2E0
:1006200013806381134B23610023E3613DE7BAF13B
:10063000000F3FF439AF6344022F23634FEA4103B5
:100640001BBF5B1801F00101194601EB5301A4E740
:100650000325DCE640F6F577B9428CBF0227012777
:1006600080E700BFF5FFFF0F525261417272416196
:1006700050C1022052C1022001292DE9F047054650
:100680000C46174673D9036A8B4270D94379022B03
:1006900040D0032B51D0012B69D101EB5108C16A25
:1006A00001EB5821FFF744FE064640BB14F001045D
:1006B00005F13C0908F1010AC8F3080808BFFBB2BC
:1006C00028461FBF19F8083003F00F023B0103F062
:1006D000F00318BF134309F808300123E96AEB71EE
:1006E00001EB5A21FFF724FE064640B9CAF3080A77
:1006F00044B1C7F3071709F80A700123EB713046BC
:10070000BDE8F08719F80A30C7F3032723F00F0379
:100710001F43F0E7C16A01EB1421FFF709FE06460B
:100720000028ECD1640005F13C0304F4FF741F556C
:100730001A19C7F307275770DFE7C16A01EBD41115
:10074000FFF7F6FD06460028D9D1A40005F13C03C9
:1007500027F0704704F4FE741C442046FFF74CFD5C
:1007600000F0704120463943FFF74EFDC5E70226F1
:10077000C5E70129F8B505460C4652D9036A9942E6
:100780004FD24379022B29D0032B38D0012B48D1EB
:1007900001EB5106C16A01EB5621FFF7C9FD10B10B
:1007A0004FF0FF30F8BD771CC6F30806E96A28460B
:1007B0002E4401EB572196F83C60FFF7B9FD002865
:1007C000EED1C7F30807E3073D4495F83C0046EA3D
:1007D00000204CBF0009C0F30B00E3E7C16A01EB46
:1007E0001421FFF7A5FD0028DAD164003C3504F49C
:1007F000FF742B19285D5B7840EA0320D2E7C16AB9
:1008000001EBD411FFF794FD0028C9D1A40005F134
:100810003C0004F4FE742044FFF7EEFC20F070402E
:10082000C0E70120BEE7B1F5001FF8B506460D464A
:1008300001D30220F8BDCA06FBD182680468316189
:10084000CAB96379022B01D9236B9BB9A389B3EB96
:10085000551FEED9236BB361B3697261002BE8D0E9
:1008600003EB55233C34C5F308050020B3612C4449
:10087000F461DFE71A46E7897F02BD42114604D2E0
:100880002046FFF7C9FCB061E6E73068FFF771FF6B
:10089000431C024606D00128CBD9236A8342C8D91B
:1008A000ED1BEAE70120C5E72DE9F0418046056828
:1008B0000F4649B96E69C6B12B6AB34298BF01268B
:1008C000AB69A3B9002406E02846FFF752FF0128D0
:1008D000044603D801242046BDE8F081421C51D0D3
:1008E0002B6A8342F7D83E46EAE70126E8E7BE4294
:1008F00015D12B6A741CD8F80000A34298BF0224BB
:100900002146FFF736FF0128E4D0431C3AD0D8B186
:100910006B69012B03D92A6A934238BF1E463446BD
:1009200001342B6AA34202D8012ECBD902242146DE
:10093000D8F80000FFF71DFF40B10128CAD00130F0
:1009400020D0B442ECD1BDE7002CE8D04FF0FF320C
:1009500021462846FFF790FE90B957B92A6AAB693D
:10096000023A6C61934210D92B7A43F001032B7247
:10097000B1E7224639462846FFF77EFE0028EDD033
:100980000128A7D14FF0FF34A5E7013BAB61EBE7AE
:10099000F8B50D46074611460468012D2BD9236A88
:1009A000AB4228D92AB14FF0FF322046FFF764FE50
:1009B00030B929463868FFF7DCFE064608B9002042
:1009C000F8BD012817D0431C17D000222946204625
:1009D000FFF752FE0028F3D1226AA369911E8B42D1
:1009E00005D20133A361237A43F001032372B2429B
:1009F0003546DED8E3E70220E2E70120E0E7F8B57C
:100A000005460E46FFF770FC0446F8B9314605F17D
:100A10003C062846FFF700FC4FF400720746A86327
:100A2000214630463FF068FDEB899C4204D3E889BB
:100A3000001B18BF0120F8BD01233A193146286870
:100A400001F001FF0028F2D10134EDE70120F2E7C7
:100A50002DE9F84307690446894605682037B7F54C
:100A6000001F24BF00238361836973B1C7F30808A3
:100A7000B8F1000F39D101334169836139B9AB89CC
:100A8000B3EB571F31D80023A36104200BE0EB899F
:100A9000013B13EA572328D12846FFF76AFE0128B5
:100AA000064602D80220BDE8F883421C01D101208D
:100AB000F9E72B6A834212D8B9F1000FE3D06169DC
:100AC0002046FFF7F1FE0646A8B10128EAD0431CF4
:100AD000EDD001462846FFF792FF0028E7D1666176
:100AE00031462846FFF798FBA0613C35276100207E
:100AF0004544E561D7E70720D5E7F8B50F46002163
:100B000004460668FFF78FFEA8B90546A16930467E
:100B1000FFF70EFC78B9E3691B78E52B00D01BB911
:100B20000135BD4201D1F8BD054601212046FFF740
:100B30008FFF0028EAD0042808BF0720F3E7000051
:100B40002DE9F84FFF2581460F4606682C464FF0E9
:100B5000040A4FF6FF78D9F8181019B9BAF1000F46
:100B600078D067E03046FFF7E3FB8246002861D18A
:100B7000D9F81C000378002B76D0C27AE52B02F05E
:100B80003F0289F806205BD02E2B59D022F020019D
:100B9000A1F1080CDCF1000141EB0C01B9424FD18D
:100BA0000F2A52D1590649D5D9F8102003F0BF03B6
:100BB000457BC9F82C20427BAA4241D1C17E827E6E
:100BC00042EA012212B2002A3AD101780D24D6F865
:100BD00010C04FF0010E21F04001DFF894A0013960
:100BE00061431AF8014B00EB040B045D9BF801B064
:100BF00044EA0B24BEF1000F24D0FF2920D82CF8A2
:100C00001140A646013101320D2AEAD1027852067E
:100C100007D5BEF1000F04D0FF2911D800222CF80F
:100C200011205C1EE4B200214846FFF711FF824606
:100C3000002890D00023C9F818300DE09C42BAD0AB
:100C4000FF24F0E74445DED0FAE744B9FFF7EFFAB6
:100C5000A84204D14FF0000A5046BDE8F88F4FF08B
:100C6000FF33C9F82C30F7E74FF0040AE2E700BF82
:100C7000609B0808C16A4B1C2DE9F04104460568D9
:100C8000066918D1E5274FF00108A1692846FFF74A
:100C90004FFB60B9E3691F7085F807802369B34291
:100CA0000DD201462046FFF7D3FE0028EDD00428E0
:100CB00008BF022003E0FFF7B6FD0028E2D0BDE840
:100CC000F08100002DE9F04F002185B00446D0F8F6
:100CD0000080FFF7A8FD8146002840F08C804FF08F
:100CE000FF0A4FF0FF335746E3620093A169404685
:100CF000FFF71EFB814600287DD1E5692E78002E86
:100D00007DD0EA7AE52E02F03F03A37103D01007ED
:100D100004D50F2B04D0009BE36252E00F2B57D178
:100D200094F82B30590642D4720648D5236906F050
:100D3000BF0695F80DA0E3626B7B534541D1EA7E77
:100D4000AB7E53EA02233CD12F780121D8F810B0B2
:100D500007F03F077B1E0D275F432A4B13F8012B3B
:100D6000A81815F80290407849EA002959B3FF2FD6
:100D7000039326D8484659F087FB7A1C02903BF82B
:100D80001700019259F080FB0299814219D1019A12
:100D90004946039B17461C4A9A42DFD12B785B06D3
:100DA00003D511B13BF817305BB9013EF7B2002112
:100DB0002046FFF74DFE8146002897D01BE0B74242
:100DC000BAD0FF27F3E74FF6FF729145E3D0F8E77B
:100DD00027B92846FFF72BFA50450CD094F82B90F2
:100DE00019F0010997D10B2204F1200128463FF0A8
:100DF00099FB00288FD1484605B0BDE8F08F4FF031
:100E00000409F8E7609B08086D9B08082DE9F04F7E
:100E100090F82BB089B005461BF0A00440F0E180AB
:100E200007683A6932F81430002B6BD105F12006BF
:100E30000DF1140A1BF0010F96E807008AE807007D
:100E400000F0D68040234FF0010885F82B30B446DF
:100E50003B69B8F1050F9AE80700ACE803002CF8ED
:100E6000022B4FEA12428CF800205ED9981E4246AF
:100E700030F8021F002947D10DF1130C072102F0B1
:100E80000F0E01390EF13000392888BF0EF13700FE
:100E90000F2A0CF801094FEA121048D808AB7E203F
:100EA0005A1802F8140C05F11F00002284468A42E9
:100EB00006D01CF801EF02F10109BEF1200F38D174
:100EC000072902F1010297BF08AB4FF0200C03EB9A
:100ED000010C013198BF1CF814CC072A00F802C09D
:100EE000EED92846FFF7EEFE814600287CD108F1B6
:100EF0000108B8F1640FAAD14FF00709484609B0BC
:100F0000BDE8F08F01348DE74FF0100C01F0010EB9
:100F100049080EEB4202D30344BF82F4883282F0C8
:100F20002102BCF1010CF1D1A2E74246A4E702463E
:100F3000A5E74A46BBE729692846A1EB4411FFF71C
:100F400072FC81460028D9D14FF6FF783046FFF772
:100F50006EF90190A9693846FFF7EAF98146002841
:100F6000CCD1EB69E1B2019A4FF00D0CD7F810E04B
:100F70005A734FF00F02DFF8DCA0DA724A1E1873C2
:100F80000CFB02F284469876D87640451AF8019B0D
:100F90000CF1010C18BF3EF8120003EB090B18BF4F
:100FA000013203F809004FEA1029002808BF404623
:100FB000BCF10D0F8BF80190E7D1404502D03EF80F
:100FC00012200AB941F0400119700123002128467E
:100FD000FB71FFF73DFD814600288FD1013CB9D15F
:100FE0001AE04FF0060989E7042887D185F82BB06D
:100FF0001BF0020F28461BBF0C340D230124B4FB49
:10100000F3F418BF01342146FFF777FD814600282D
:101010007FF474AF013C8ED1A9693846FFF788F997
:10102000814600287FF46AAF01462022E8693FF03C
:1010300063FAEB6903CE18605960B27831889A720E
:10104000198195F82B30EA6903F018031373012313
:10105000FB7153E7609B0808F8B50446FFF744F9B5
:101060000546002842D16379032B37D1277A012F17
:1010700034D104F13C0601464FF4007230463FF093
:101080003BFA55234122722184F83A32AA2384F88C
:101090003F2004F5097084F83B32522384F8222261
:1010A00084F83C3084F83D30612384F8201284F8C1
:1010B0003E3084F8233284F82112A169FFF7A4F8A6
:1010C000616904F50A70FFF79FF8A26A3B46314652
:1010D00001322068A26301F0B6FB2572002220686D
:1010E000114601F0C5FB003018BF0120F8BD2DE905
:1010F000F0470026D0F800A080460C468E75836924
:10110000002B00F09280C36A01336DD1D8F81C1017
:1011100000232E264D1E184615F8012F0130202AD7
:101120000CD0052A08BFE522092804D10B2B9EBF4D
:10113000E71801337E72E71801337A720B28EBD17E
:10114000E21800205072A27D002A5DD1002B52D0FF
:101150006FF0080604F109000825361B321810F854
:10116000013B002B4AD09BB22E2B60D0A3F1410251
:10117000192A03D80A7B154200D020330373EDE708
:10118000B9F1000F05D100F520539BB2B3F5006F04
:1011900012D340F2B51140EA094059F041F9FF2855
:1011A000C7F1FF0519D9012D21D9E319020AD87514
:1011B0009A7502231F44002002368146DAF8103067
:1011C000985B0028DCD13D46B9F1000F4FF00003D9
:1011D00018BF00252544AB7598E750B1002DF3D01A
:1011E000E31998750123E5E7B1463746E6E70025A0
:1011F000EAE70546E8E73F230122A37500232244DE
:1012000093750B7B03B96372CB7A01F11C002372D7
:10121000FEF7F2FF2060CA7D8B7D43EA0223E38064
:101220004A7E0B7E43EA0223A380BDE8F0871025A7
:10123000A4E700002DE9F04F0B7887B006468846FA
:101240002F2BD0F800B001D05C2B09D14246137887
:10125000904601322F2BFAD05C2BF8D0002301E00E
:10126000DBF81C30B36098F800301F2B00F22A81A5
:1012700080230021304686F82B30FFF7D4FA07B0E0
:10128000BDE8F08FFE2D00F246812AF815300135B9
:101290001EE108F101020592DDF8148098F80020A3
:1012A0002F2AF6D05C2AF4D0202B34BF042400244B
:1012B000012D2CD1BAF800302E2B2ED1002306F1AF
:1012C00020022AF815309D428CBF2E2120210133A7
:1012D0000B2B02F8011BF6D144F0200486F82B40BA
:1012E0003046FFF7EFFC96F82B30002800F0D9804D
:1012F0000428C4D1990603F0040240F1CE80002AEC
:1013000000F0E0808023002086F82B30B7E7022D24
:1013100003D1BAF802302E2BCCD00AEB45037DBBAB
:1013200000210AEB45032AF81510002D00F0F38088
:101330003AF81120481C202A2AD009B92E2A01D1B6
:1013400044F0030433F8022D2E2A01D0013DF9D1D7
:101350004FF000094FF0203208234F46726232628C
:10136000C6F827203AF811004A1CF8B1202803D00B
:101370002E280FD1954211D044F003041146F1E715
:1013800033F8022D202A01D02E2AC9D1013DC6E70B
:101390000146CDE7994504D2954233D10B2B2AD192
:1013A00001E00B2B22D144F003040B2396F82020FC
:1013B000E52A04BF052286F82020082B04BFBF00C1
:1013C000FFB207F00C030C2B03D007F00303032B31
:1013D00001D144F00204A30780D4FD0748BF44F0C4
:1013E0001004780748BF44F0080477E7954202D01C
:1013F00044F00304DAD3BF002A460B234FF0080958
:10140000FFB2BBE77F2813D940F2B511CDE9022323
:1014100044F00203019359F003F810F0800FDDE966
:10142000022310D000F07F003D49085C019C30B1E0
:10143000DFF8F4C01CF8011BE9B18142FAD144F095
:1014400003045F2010E0FF28F0D9591E894503D31B
:1014500044F00304994691E706EB0901040A09F1F7
:10146000010981F82040019C06EB090109F10109FD
:1014700081F8200082E7A0F1410189B2192902D840
:1014800047F00207F0E7A0F1610189B219299EBF78
:10149000203847F0010780B2E6E7002A08BF0520A0
:1014A000EDE65A073FF5EBAEB379DB0635D5336988
:1014B0000BF13C019BF80500C3F308031944FEF748
:1014C000F8FEB06033680025CDF81480D3F810A082
:1014D00005A8FEF7DEFE421C1DD0B0F5803F24BFFC
:1014E000030C2AF8153083B228BF01351F2B7FF675
:1014F000D3AE2F2B3FF4D0AE5C2B3FF4CDAE7F2B81
:101500003FF6C0AE1846074911F8012B002A3FF4F8
:10151000B9AE8242F8D10620B1E60520AFE600BFA1
:10152000E09A0808DA9B0808E39B0808002141714B
:10153000FEF756BF2DE9F04305468DB090461E4696
:101540000C46002900F0BD8003F03F073946FEF746
:1015500047FF002840F0AD80414668460095FFF700
:1015600069FE024620B99DF92B30002BB8BF062238
:1015700016F01C0F6DD0002A3ED0042A39D16846DF
:10158000FFF744FC0246A0BB47F00807DDF81C90BB
:101590002E46494616F8050FFEF78BFE804658F09A
:1015A000C5F8014609F10E00FEF72EFE079B20222A
:1015B0003046DA7200220799FEF78AFE079B002266
:1015C0001A775A779A77DA770123EB71B8F1000F1F
:1015D0001BD041466846AE6BFFF7DAF9024640B9C8
:1015E00031462846FEF7A4FE08F1FF310246696144
:1015F00058B10023236028E09DF8063013F0110F46
:1016000031D1700757D43107C0D4AB6B3907079E6F
:10161000236248BF47F04007666231466879FEF7AB
:1016200048FE0146A06006F11C00FEF7E5FD6B894F
:10163000BA060646A3804FF00003E06025602774D9
:101640006374E361636110D4002210460DB0BDE8FD
:10165000F083002ACDD19DF80630DA062DD4B607E6
:10166000D3D5D807D1D50722C3E70028ECD0EF891E
:1016700060617F02B7420FD30022A161002AB8D176
:10168000C6F30803002BDFD02846FEF7C5FDB0B136
:1016900000EB5620E061D8E72068F61BFFF769F8F9
:1016A0000128014603D9431CE4D10122E5E70222C7
:1016B000E3E702469DE708229BE7042299E702221E
:1016C00097E70922C1E72DE9F04F9A4685B000233C
:1016D000894603A90446CAF800301546FEF7B6FD50
:1016E0000646F0B9667CE6B9237C13F0010301934A
:1016F0007DD0E3686769DF1BAF4228BF2F4687B103
:101700006269C2F30803002B58D1039BDB89013BBC
:1017100013EA522815D142B9A06801280AD8022636
:101720006674304605B0BDE8F08FA1692068FFF708
:1017300020F8F2E7431C03D10123019E6374F0E714
:10174000A061DDF80CB0A1695846FEF765FD0028E0
:10175000E5D008EB0003B7F5007F00932CD37D0A9A
:10176000BBF80E20DBF8000008EB0501914249466A
:1017700088BFA2EB0805009A2B4601F055F8002817
:10178000DAD10399CB795BB1886B009BC01AA84270
:1017900006D24FF400723C3109EB40203EF068FE67
:1017A0006D02DAF800307F1BA9442B44CAF80030E0
:1017B00063691D446561A2E7009BE3616569E169B6
:1017C000C5F308050398C5F50075BD4228BF3D4621
:1017D000FEF7AEFD0028AFD103992A46636948465B
:1017E0003C31C3F3080319443EF042FED9E7072613
:1017F00097E72DE9F04F9B4685B00023894603A962
:101800000446CBF800301746FEF720FD064618BB0D
:10181000667C0EBB237C9A0740F1AA806369FB4279
:1018200000D3DF43A7B16369C3F30802002A40F085
:101830008280039AD289013A12EA532201921ED180
:1018400073B9A06870B901462046FFF72DF848B972
:10185000237C43F040032374304605B0BDE8F08F8D
:10186000A169F1E7012802D102266674F4E7431C5E
:1018700001D10126F9E7A368A06103B9A06003982C
:10188000E369826B9A4203D1FEF72EFD0028F0D166
:10189000DDF80CA0A1695046FEF7BEFC0028E3D09D
:1018A000019BB7F5007F03EB000836D37D0A019A50
:1018B000BAF80E3049462A44DAF800009A4284BF4A
:1018C000019A9D1A42462B4600F0BDFF0028D0D158
:1018D000DDF80CA0DAF83810A1EB0801A9420BD210
:1018E00001904FF4007209EB41210AF13C003EF0F7
:1018F000BFFD019B8AF807306D02DBF800307F1BCB
:10190000A9442B44CBF8003063691D44E36865614A
:10191000AB422CBFE360E56084E76269E3689A420A
:1019200007D35046FEF7E0FC0028A2D1039BC3F882
:101930003880C4F81C806569E169C5F3080503981F
:10194000C5F50075BD4228BF3D46FEF7F1FC0028F5
:101950008FD103982A46636949463C30C3F3080394
:1019600018443EF085FD039B4FF00102DA71C4E795
:10197000072671E7F7B501A90546FEF767FC04469F
:1019800068BB2C7C14F0400429D057F0CFFE296AA4
:1019900007460198FEF7CCFC044600BB6E6AF37A5A
:1019A000314643F02003F3722868AA680530FEF739
:1019B0008FFCE96806F11C00FEF726FC394606F1AB
:1019C0001600FEF721FC01230198B474F474C3716E
:1019D000FFF742FB2B7C044623F040032B74204688
:1019E00003B0F0BD13B50446FFF7C4FF28B901A941
:1019F0002046FEF72BFC00B9206002B010BD70B588
:101A00000E468CB000210546FEF7EAFC044660B99C
:101A1000314668460095FFF70DFC044690B99DF9E4
:101A20002B30002B04DA029BEB6120460CB070BD1A
:101A30009DF80630DB0609D507996879FEF739FC71
:101A4000E861F2E7042808BF0524EEE70524ECE787
:101A50002DE9F0470E460021D2B080463170914604
:101A6000FEF7BEFC0546D8B9D8F81C304F46CDF875
:101A700000800293DDF808A0BAF1000F16D14F459F
:101A800004BF07F1FF372F23A7EB060108BFF3556B
:101A90003346DA5D01361A70721833469145F8D82C
:101AA00000232846337052B0BDE8F08720216846F5
:101AB000FEF7B9FE00284CD106994046FEF738FCE7
:101AC0000446002843D1079998F80500FEF7F1FB7A
:101AD000214602906846FEF7A6FE002839D1002173
:101AE0006846FFF72DF80446B8BB079998F805003B
:101AF000FEF7DFFB50450AD021466846FEF7A8FFF7
:101B00000028ECD00546042D08BF0225C8E70CA923
:101B10006846FFF7ECFA0DF14602214612F8010B78
:101B20004B1C58B99F4216D3F2190B4643B97B1E82
:101B30002F225B1AC943F2540F449BE71946EDE785
:101B4000013B0CA81844807D02F8010DEEE7054624
:101B5000A6E70546A4E71125A2E70546D3E72DE948
:101B6000F3410D4601A90446FEF770FB0646002826
:101B700050D1667C002E4DD1E368AB4204D2227C6A
:101B800012F0020F08BF1D460022636962619DB911
:101B90000025E2686369934284BF227CE360C3F35B
:101BA000080384BF42F040022274002B32D0E36964
:101BB000AB4218BFE5612DE0019AD7897F02FBB1E6
:101BC000013B6A1EB3FBF7F1B2FBF7F28A4217D36F
:101BD0007A42A1691340ED1A63610029D8D0BD4251
:101BE000636922D863692B446361C5F30803002B42
:101BF000CED00198FEF710FB50B100EB5525C8E799
:101C0000A16881B92046FEF74FFE0128014605D1A3
:101C100002266674304602B0BDE8F081013001D181
:101C20000126F6E7A160A161D7E73B44A5EB0708D1
:101C30006361237C9A0706D52046FEF735FE0546EC
:101C400028B90146CEE72068FEF793FD05466B1CD8
:101C5000E6D0012DDCD9019B1B6AAB42D8D9A56126
:101C600029464546BBE770B5054616460C4621B3E6
:101C70000021FEF7B5FB68B9256031462046FFF725
:101C8000D9FAE0B994F92B30002B0BDBA379DB06F2
:101C900003D40520002323600EE06879E169FEF794
:101CA00008FBA0606B8900212046A380FEF7BBFDE6
:101CB0000428EED00028EDD170BD0920FCE70428EF
:101CC000E7D0E7E713B501A90446FEF7BFFA00B96C
:101CD000206002B010BD73B50D4601A90446FEF7A1
:101CE000B5FA20B9014620461DB9FEF79CFD02B0A9
:101CF00070BDFEF725FF10F0FB06F8D129462046FF
:101D0000FFF7F5F931462046FEF7A2FE042808BF8A
:101D10000020ECE770B504468CB00E460021154655
:101D2000FEF75EFB0094044670B931466846FFF743
:101D300081FA044640B99DF92B30002B07DB1DB119
:101D400029466846FFF7D3F920460CB070BD06243B
:101D5000FAE72DE9F84F884600210446FEF740FBDC
:101D6000074640B9D4F820A0A369AAF10202934221
:101D700004D8C8F800303846BDE8F88F6379012BE5
:101D800017D10226054631462046FEF7F2FC431CD9
:101D900038D0012838D000B901350136236AB34262
:101DA000F1D8C8F80050237AA56143F001032372EB
:101DB000E1E7E16A0646054604F13C0936B92046EA
:101DC00001F1010BFEF7B4FA00BB5946637909EB48
:101DD0000600022B0DD119F806300236427853EA7C
:101DE000022308BF0135BAF1010AC6F30806E5D19E
:101DF000D7E7FEF701FA30F0704306F1040608BF9A
:101E00000135F0E70127CCE70227CAE70746C8E714
:101E1000F0B50E4699B002210546FEF7E1FA0446F8
:101E200088B9314668460095FFF704FA044650B970
:101E30009DF82B3098063BD4190639D49DF80670CE
:101E4000FA0703D50724204619B0F0BD0799687931
:101E5000FEF72FFAFB0606460BD46846FEF70AFF8C
:101E600004460028EFD1D6B92846FFF7F5F8044616
:101E7000E9E7EB698342E5D00E9021460CA80C956A
:101E8000FEF7D1FC04460028DDD101460CA8FEF780
:101E900057FE04460028D5D00428D4D1DDE70246F9
:101EA00031466846FEF774FD04460028CBD1DBE7D7
:101EB0000624C8E72DE9F0430E4691B002210546FD
:101EC000FEF78EFA044600286BD1314604A804952B
:101ED000FFF7B0F90446002871D0042861D19DF8BD
:101EE0003B1011F020016CD168460095FEF7DCFC38
:101EF0000646002859D0012859D0431C5C425C4159
:101F000057F014FC8046002C53D131462846FEF78A
:101F100076FD044600284CD14FF0203305F13C04F7
:101F20006F1D4146EB6305F152002B64C5F8433049
:101F30002E2385F83C30102385F84730FEF764F9EE
:101F4000324621463846FEF7C3F905F15C031A46CE
:101F500051F8040B994242F8040BF9D12E234FF0AB
:101F60000109069A384685F85D30FEF7B1F985F823
:101F7000079004A8FEF74AFF0446D0B90B984146E3
:101F80001630FEF741F932460B993846FEF7A0F9B4
:101F90000B9B10222846DA7285F80790FFF75CF851
:101FA0000446204611B0BDE8F0830724A8E70224C8
:101FB000A6E7002231466846FEF7EAFCF1E708246E
:101FC000EFE70624EDE7F0B50C46A1B00221064686
:101FD0001746FEF705FA002878D1214608A808968A
:101FE000FFF728F9002871D19DF84B3013F0A00FAE
:101FF0006ED10F9B6C4603F120051868083353F827
:10200000041C2246AB4203C21446F6D108AD14AC00
:102010000FCD0FC40FCD0FC495E80F0084E80F005B
:10202000394614A8FFF706F948B9169A0A9B9A424E
:1020300003D1189A0C9B9A4203D0082046E004284A
:1020400044D114A8FEF7E2FE00283FD11B990DF100
:102050000D030DF11D0001F10D0253F8044B8342F5
:1020600042F8044BF9D11888012410809B789370B2
:102070009DF80B30DA0658BF43F02003CB72F471A1
:10208000CB7ADB061BD50A9A169B9A4217D0707939
:10209000FEF70FF901463046FEF7BEF80146C8B11B
:1020A0003046FEF745F988B996F85D302E2B06D1FB
:1020B000169A06F15C01701DFEF70AF9F47108A882
:1020C000FEF7D8FD10B93046FEF7C6FF21B0F0BDCF
:1020D0000620FBE70220F9E7F0B595B0074601912D
:1020E0000221FEF77DF90546002833D14FF0203359
:1020F00002AE044602937360C6F80730019B1B785A
:102100001F2B20D89DF80830E52B22D01CB1631E70
:10211000F25C202A35D0002108A808970A91FEF722
:1021200082FB0546B0B9012108A8FEF709FD98BB5E
:102130000F9A44B3334603CB1060516019889B78E3
:102140001181937221E001A8FEF7A3F8B0F5803F5A
:1021500003D30625284615B0F0BD58F095F940F296
:10216000B51158F05DF90028F3D01D4A12F8013B73
:1021700013B19842FAD1ECE7FF2822D80A2C28D9CB
:10218000E7E71C46C2E7E523137001233846FB71DD
:10219000FEF762FF0546DDE70428FBD1002CD9D00D
:1021A000012108A8FEF7A9FC05460028D2D120226B
:1021B00001460F983EF0A0F908220F9BDA720F9AA1
:1021C000B8E7092CC5D814AB020A2344013403F83C
:1021D000482C14AB2344013403F8480C8EE700BFAD
:1021E0006D9B08082DE9F04F1C4600238BB0076853
:1021F0004371154603790DF11F02039138460521FD
:10220000029300F035FB9DF81F30DA0700F192824F
:102210005E0700F1918208AA0321384600F028FBEE
:1022200030B9089A531EB3F5004F01D21A4201D0BB
:10223000012308935DB1A5F500725E4B9A4203D964
:1022400013200BB0BDE8F08F6B1E2B42F8D1002C91
:1022500000F07482149BB3F5007FC0F06F82029B84
:10226000002B63D0012300222146384600F0DCFA1F
:1022700008B10120E5E794F8FF2194F8FE3143EA24
:1022800002234AF65522934201D00E20D9E7029B41
:1022900004EB031191F8B23101F5D771002BF4D0A2
:1022A00001F10800FDF7A8FF814601F10C00FDF7E0
:1022B000A3FF0990DDF824A0BAF1150FE5D9B5F513
:1022C000813FBDD2039B6A0A13F0020E44D003F093
:1022D0000701022900F04082D80740F13D82002A20
:1022E00059D14FEA1A353448012630F8021B09B19A
:1022F000A94239D9BAFBF6F540F6F5714FF0010B5A
:102300008D424FF0200193BF05EB450502354FF09C
:1023100002084FF0010894BF01356D0005919CBF84
:102320006D08033505F2FF156D0A39E209AA01218E
:10233000384600F09DFA00289BD1039B13F0080F4C
:10234000099B14BF4FF000094FF03F094B459CD348
:10235000A3EB09030993ADE70399C907BFD46FE75E
:10236000520000E2114605E27600BEE7B8F1020F26
:1023700024D14FF6F571049B8B420ED9002A40F010
:10238000E7817200402AAAD9BEF1000F40F0E78130
:10239000802A3FF67AAF1646ACE740F6F571049B0B
:1023A0008B4213D8002A7FF470AF7200802A96D92E
:1023B0006BE700BF00FEFF008A9B080840F6F5733C
:1023C000049A9A423FF661AF4FF001084FF4007251
:1023D000002120463EF090F8D94BB8F1030F84F865
:1023E0000EB01A68CBF3072B667322605A6884F824
:1023F0000FB062601A899B7A22814FF00202A372A9
:102400004FF0000322734FF00102E372637418BFB0
:102410000223BAF5803F2274A37480F0228184F8ED
:1024200013A0CAF3072A84F814A0F8234FF0000A77
:10243000494604F11C0063753F2384F819A02376F4
:10244000FF2384F81BA0A376FDF7DEFEB8F1030F8F
:1024500040F00D8157F06AF9014604F14300FDF7A1
:10246000D3FE294604F12400FDF7CEFE022304F139
:10247000470284F82DA084F82C30012384F82EA084
:1024800084F83030062384F82FA084F8323080237B
:1024900084F831A084F84030292384F833A084F8EC
:1024A0004230A84B03F1100153F8040B8B4242F861
:1024B000040BF9D119884FF0550B9B7838461180E1
:1024C000214693706FF0550384F8FEB14A4684F8B4
:1024D000FF31012300F0B7F9824600287FF4C9AE2E
:1024E000B8F1030F3FD1012309F106022146384616
:1024F00000F0A9F94FF40072514620463DF0FCFF70
:10250000522341227221237004F5F4706370612319
:10251000E270A37084F8E731049B84F8E41184F836
:10252000E511591E84F8E621FDF76EFE022309F13C
:102530000702214684F8EC316FF0550384F8EDA1D1
:10254000384684F8FF31012384F8EEA184F8EFA126
:1025500084F8FEB100F077F901232146384609EBF3
:10256000030200F070F9149B0021204623F4FF724F
:1025700022F001023DF0C0FFB8F1030F40F094805B
:10258000F8232370FF236370A370E37023716371DA
:10259000A371E37123726372A3720F23E372149B1E
:1025A0004FEA532B5D45AA462146019A28BFDA46D9
:1025B0003846534600F047F9014600287FF459AEEB
:1025C0004FF4007220463DF097FF019BB5EB0A05E2
:1025D00053440193E6D1059BB8F1030F18BF1E4683
:1025E0005E453546019A214628BF5D4638462B4652
:1025F00000F029F900287FF43CAE019B761B2B44A8
:102600000193EDD1B8F1030F58D0099BB3F5803F8A
:1026100056D2B8F1020F0CBF04250125029B002BF6
:1026200050D0002201232146384600F0FDF8024632
:1026300000287FF41EAE029B04EB031383F8B25113
:1026400001232146384600F0FEF800287FF411AE41
:1026500000223846114600F00BF9003018BF012067
:10266000EFE5514604F12000FDF7CEFDDDE657F021
:102670005DF8014604F12700FDF7C6FDC5F3072309
:1026800004F12B02A575E375802384F824302923F7
:1026900084F826302C4B03F1100153F8040B8B42C5
:1026A00042F8040BF9D105E7B8F1010F274920469C
:1026B00018BF6FF00701FDF7A7FD70E70C25ADE728
:1026C0000625ABE7039B1B07C2D44FF400720299A7
:1026D000204601263DF010FF5523099A494684F80B
:1026E000FE31AA234A4404F5E37084F8FF31029BCB
:1026F00084F8BF6184F8BE3184F8C13143F6C16308
:1027000084F8C06184F8C251B2FBF3F2FE2384F86E
:10271000C52184F8C331930843F03F0384F8C431E2
:10272000FDF772FD099904F5E570FDF76DFD33467F
:10273000029A86E7032084E50A2082E5112080E5DD
:10274000A69B0808B29B0808C69B0808F8FFFF0074
:10275000BEF1000F3FF499AD002A7FF403AE4FEABB
:102760005A452F48012230F8021B19B1A9427FF6C1
:10277000F7AD00212B4EBAFBF2F08500A0F57F40AB
:10278000F63805F20725B0424FEA55253FF67DADF4
:1027900016464FF0200B0A464FF003080021059122
:1027A00009EB0B01DDF820C0B8F1030F0191059989
:1027B00008BF019B05EB0100019908440CF1FF31B2
:1027C000CCF1000C014401EA0C01A1EB000105BFB2
:1027D0005B188B446D18194608BF0191C9EB0611AF
:1027E00008448245FFF451AD059BB8F1030FAAEBF5
:1027F0000301A1EB0B01A1EB0501B1FBF6F304937F
:102800007FF4B4AD4FF6F5718B423FF6DFAD002A91
:102810007FF43BAD012E7FF638AD72089CE700BF18
:10282000989B0808FFFFFE0F10B50C4611461A468C
:1028300038B1234604303DF0F1F8003018BF0120D4
:1028400010BD0420FCE710B50C4611461A4650B1E5
:10285000234604303DF006F910F11E0F05D000307C
:1028600018BF012010BD0420FCE70220FAE7000099
:1028700070B50D4614460646002833D001F0070314
:10288000234AD15C00292FD0002204303DF014F9F6
:10289000062D27D8DFE805F008050A1626191900C5
:1028A00006202AF031FE2060002070BD062805D1E8
:1028B0004FF4007323802388B360F5E72AF024FEE9
:1028C0002080F8E701232360EEE7062801D04308C3
:1028D00006D1336A002B0CBF042300232370E3E7E7
:1028E0000123FBE70420E0E7062DFBD801A353F802
:1028F00025F000BFA9280008A1280008B128000879
:10290000C5280008E5280008D3280008D3280008B7
:10291000C0C80708086833F08AB9000037B51D46FB
:10292000043001AB1446FEF764FF38B1064B1B5C64
:102930004FF0FF342B60204603B030BD019BA34213
:10294000F9D01C23F4E700BF00C9070813B51C46E3
:10295000043001ABFEF7B7FE30B1044B1B5C4FF007
:10296000FF30236002B010BD0198FBE700C90708E3
:102970002DE9F8438146506890460F46002430F018
:102980001DFD254A013810F8013FD3B92C201DF058
:1029900097FB06460546D8F8000046F8047B30F061
:1029A0000DFD31460246E3B209F14400FEF7C2FDD7
:1029B000074640B328461DF09DFB184BD85D29F013
:1029C000A3FF722B11D008D8612B17D0622B18D01F
:1029D0002B2BD8D144F00304D5E7772B08D0782BE4
:1029E00009D0742B08BF1746CDE744F00104CAE7AD
:1029F00044F00A04C7E744F00604C4E744F01204B4
:102A0000C1E7074FBFE7E30603D529693046FFF763
:102A1000A6F82846BDE8F88350C9070800C907088A
:102A200014C9070830B587B005460846114603ACFF
:102A30001A46064B0194009303232AF063FA2246B8
:102A400029460020FFF794FF07B030BDE8C807080B
:102A50001FB50623CDE9011201AA03490393FFF72D
:102A600087FF05B05DF804FB50C9070870B50C4638
:102A7000054608462AF0BEFC23460246024928467F
:102A8000BDE8704000F0B0BFDCC80708022970B58F
:102A9000044615461E4613D15368012B0AD0022B5B
:102AA0000CD01BB91168201DFFF759F8A3692B60E2
:102AB000002070BD81692B681944F4E70169FAE7C9
:102AC00001290AD10430FEF755FF0028F0D0084B49
:102AD0001B5C33604FF0FF30EBE7042906D14368FD
:102AE000002BE5D00430FEF77DFFEEE71623F0E77C
:102AF00000C907080000000007292DE9F74F0190E1
:102B00009DF8305012D8012907D93F2300F8013B26
:102B100001900023019A137001E00029F9D10129E5
:102B200094BF0020012003B0BDE8F08F10EE904A62
:102B3000002C019C25DAB4EE400BF1EE10FA20D601
:102B4000B1EE400B2D2504F8015BB0EEC07B02F026
:102B5000200E9FEDCF6B5FFA8EF5B4EE467BF1EE63
:102B600010FA13DD85F04903E11C237085F04E0354
:102B700085F046056370A57000230B70019BC81A91
:102B8000D1E7002DE1D004F8015BDEE7B4EE400BA5
:102B9000F1EE10FA08D745F04E0385F04105E11C2F
:102BA00023706570A370E7E70198002B42F02002C4
:102BB000A4EB0005B8BF0623672AA1EB050101F1CC
:102BC000FF3C40F08D80B5EE400B002B08BF012389
:102BD000F1EE10FA00F0C480B7EE007BB4EEC70B44
:102BE000F1EE10FA40F1EC800025DFF8BC824FF4E2
:102BF0008077DFF8B8A22E469FEDA76BB4EEC60B28
:102C0000F1EE10FAACBF4FF031094FF03009B8ECDB
:102C1000025BB4EEC05BF1EE10FA06DD0AEB050BC9
:102C20003E449BED005B20EE050B08357F10482DE0
:102C3000EDD1B4EEC70BF1EE10FA40F1A380B4EE83
:102C4000C60BF1EE10FAC0F29880002EB7EE000B22
:102C500014BF2D272B27662A05D0672A40F0A580B0
:102C6000042E00F3A280672A84F8009004BF06F1C6
:102C7000FF355B195D1C6545A8BFCB1E002B40F0DE
:102C8000838001341D4666211F46662A40F010816C
:102C9000B54280F26781F7B1632E4FF00A014EF022
:102CA000450E6770CABF6423A51CE51C84F800E0CC
:102CB000C2BF96FBF3F33033A3702C4696FBF1F3BF
:102CC00093FBF1F201FB136601FB12323036303216
:102CD00004F8022B6E7000232370019BE01A22E798
:102CE000B5EE400BF1EE10FA7FF476AF662A37D1DD
:102CF0005D1C002765453E46BC46A8BFCB1E66212D
:102D00005D1C23EAE373652940F0B7805D1CB2EED9
:102D1000046B4FF000084FF02E0B4545B5DDBDEEBE
:102D2000C07B04F1010A17EE100A0028AABF00F1C7
:102D300030094FF030095FFA89F9E04584F80090D6
:102D400004D11BB104F1020A84F801B0B8EEC77BCC
:102D500008F10108544630EE470B20EE060BDCE785
:102D60005D1D65454FF00005A8BFCB1F652A1146C4
:102D700079D12B27AC462E46C3E7B2EE047B013651
:102D800020EE070B2D2766E72E211D46023404F89E
:102D9000011C3021013E68D01DB92F464FF0FF3C89
:102DA00045E004F8011B013DF4E7CD1F9D4260DCC6
:102DB000672A5CD0A1F1080311460025AC46A0E7C4
:102DC0000025DFF8E8804FF48077DFF8DC902E46AE
:102DD000B8EC027BB4EEC07BF1EE10FA06D809EB3A
:102DE000050A3E449AED007B20EE070B08357F1064
:102DF000482DEDD1FDEEC07B17EE905A092D04DD74
:102E000001369FED277B20EE070B662A11D1664520
:102E100012DAF1180131614505DBACEB0603023B28
:102E2000591C08BF0023F518B44600270135662158
:102E300067E7652A40F09E80CD1F9D4201DCA1F12D
:102E4000080300252B276521AC465AE75D1D654523
:102E500000DBCB1F9E4203DB672100252B27ADE75C
:102E6000711C5B1ADFE72F4684E7374696E72B464F
:102E7000A2E700251146AC4645E767297FF447AF36
:102E800013B901252B4642E71D4640E7AFF300800A
:102E9000FFFFFFFFFFFFEF7F1450FFFFFFFFEF3F3C
:102EA0009A9999999999B93F786D0708C06D070863
:102EB000B1EE047BB4EEC70BF1EE10FA2BDB04F19C
:102EC000FF3C4FF030099CF80050E0460CF1FF3C0D
:102ED0002E2DF8D0A5F1300ABAF1090F2CD908F13E
:102EE000010898F80050302D15D198F801C0BCF1B8
:102EF0002E0F30D166292ED02D2F88F800C088F8EB
:102F0000015026D1013E08BF2B272146884524D3F6
:102F1000312188F80010672A7FF4BDAE002B3FF402
:102F2000BAAE23461C46013B14F8012C302AF9D0D6
:102F30002E2A08BF1C46AEE6392D03D0013588F88D
:102F40000050CEE701988CF801904045BBD18046F7
:102F5000C7E70136D9E70134D7E711F8015C01F87A
:102F60000159D3E7B1EE047BB4EEC70BF1EE10FAD2
:102F7000A5DA90E6672A3FF469AF11466DE700BF16
:102F800008B5044631B1054B8A6B0360002309681C
:102F90002CF024FB20461DF05FF800BF647E07087C
:102FA0002DE9FF471F460192461812B1023A222A24
:102FB00034D80546B5422C4639D215F8010B1EF01F
:102FC000C5F980460028F5D123782B2B29D12C4632
:102FD000311B204601AA27F090FF25180024A9469E
:102FE000B1454B4626D3B8F1000F00D064426400CF
:102FF00044F00104AB4209D01D46B5422B4641D2F4
:10300000187801351EF0A2F90028F6D12049019A5E
:1030100020482CF0A7FA3946FFF7B2FF1E4829F0E6
:1030200083FA2D2B04BF2C464FF00108D0E74FF058
:103030000008CDE719F8012BA2F1300ABAF1090F07
:1030400009D95F2ACCD042F02002A2F161011929EE
:10305000C9D8A2F1570A01995145C4D9204636F082
:10306000E5FE28B9019B03FB04A494EA4403B7D509
:10307000019B4246711B03A803952DF06BFC039B3B
:103080000446B7E7C2D1204604B0BDE8F08700BFD0
:10309000236E0708547F07080E6E07080000000023
:1030A0002DE9F04F2DED048B83B091464618044670
:1030B0000093109B0193B442254680F0318128781B
:1030C00001341EF043F907460028F4D12B782B2B4E
:1030D00009D125468246B4420CD300239FED949B30
:1030E0001F4619468DE02D2B03D125464FF0010ACE
:1030F000F1E782462B7843F02003692B31D1AB1CDA
:103100009E4240F205816B7843F020036E2B40F025
:10311000FF80AB7843F02003662B40F0F980EB1D75
:10312000EC1C9E421AD9EB7843F02003692B15D191
:103130002B7943F020036E2B10D16B7943F02003E1
:10314000692B0BD1AB7943F02003742B06D1EB79BB
:1031500043F02003792B01D105F108049FED768B14
:1031600014E06E2B2AD1AB1C9E4240F2D1806B78CA
:1031700043F02003612B40F0CB80AB7843F0200379
:103180006E2B40F0C580EC1C9FED6D8BBAF1000FEB
:1031900001D0B1EE488BA54209D0B442234680F05D
:1031A0009980187801341EF0D1F80028F5D16A49C9
:1031B0006A482CF04DF90199FFF7E2FE4FF0000C40
:1031C000B2EE045B2A464FF00A0863466146604649
:1031D0009FED579B9FED5C6B144614F801EBAEF12D
:1031E000300BBBF1090F39D8022823D15C4A914238
:1031F00001DC08FB01B1A6425DD8BCF1000F00D094
:1032000049420B4413F59A7F05DC03F233139FED1B
:10321000507B29EE079B13F1160F50D35B42B2EEA1
:10322000040B01EE103AB8EEC11B40F0FDFE89EE32
:10323000008BABE7B4EEC69BF1EE10FA0BD507EEB0
:1032400090BA0128B8EEE77BA9EE057BB0EE479B6C
:103250002ED1013BCFE728B90133CCE720B9BEF12D
:103260002E0F03D10120C6E7022814D04EF0200B08
:10327000BBF1650F0FD1A64255D950782B2804D148
:10328000941CB44293D00220B5E72D2812D1941C8F
:103290004FF0010CF5E7B9F1000F04D04EF0200B10
:1032A000BBF16A0F09D0BEF15F0FA4D01446A4E7AA
:1032B0000020A0E7022022468EE74F469DE707EE5A
:1032C000903AB2EE040BB8EEE71B40F0ADFE29EEEB
:1032D000008B5BE77FF46BAF57B1B0EE481B9FEDFF
:1032E000140B03B0BDEC048BBDE8F04F2BF054B9C8
:1032F000009B23B1B0EE480B9FED0D1BF1E7B0EE44
:10330000480B03B0BDEC048BBDE8F04F2CF07CBA49
:10331000BAF1000F3FF44BAF2C469FED058B38E719
:103320004FF0000AD9E63FF442AF66E7AFF3008002
:103330000000000000000000000000000000F07F1E
:10334000000000000000F87F5A62D7D718E77469C0
:103350000DC6402C18FA3100086E0708547F070884
:1033600064666606084611464CF0DABC70B5054640
:1033700008460E463DF0F8F8044620B102466B6858
:10338000314628689847204670BD00002DE9F74F68
:10339000019191469DF8301006460D9A11F0DF0F0D
:1033A000A2EB09023DD030290CA9244F0EBF4FF0EB
:1033B00010080F464FF0010813F0800435D002EBDF
:1033C000D2746410151B002C36DDA246D045C346CE
:1033D00073683946A8BFD3463068AAEB0B0A5A4631
:1033E0009847BAF1000FF1DCB9F1000F05D04C4459
:1033F00073684A46019930689847002D0DDD2C44CA
:10340000A845C14673683946A8BFA9463068A5EBF0
:1034100009054A469847002DF2DC204603B0BDE876
:10342000F08F074F4FF01008C6E713F0010501D1E8
:103430001446C8E71546D7E70024D5E7F85D070826
:10344000E75D07082DE9F043074689B00020119D8C
:103450009DF84880139E8DF80F0002B3814219DA5F
:103460002D2249428DF80F20109A08AC0DF1100E54
:10347000A2F10A00B1FBF3FC03FB1C12092A8CBF6A
:103480001218303204F8012D74450FD08B420DD83C
:103490006146EFE7A80727D52B228DF80F200029DA
:1034A000E2D130230DF11F048DF81F3015F04009D3
:1034B0009DF80F301CD023B301222B460DF10F01D4
:1034C0003846013ECDE90082FFF760FF814608AA39
:1034D0002B4621463846121BCDE90086FFF756FFE2
:1034E000484409B0BDE8F0836A07D8D52022D4E764
:1034F000002BECD004AA9442E9D904F8013C013C29
:10350000E5E79946E3E700002DE9F04F93B08046E8
:103510001E46C8079DF874300C4691461C9D0693C4
:10352000DDE91E7A0BD4A10703D122687A4B9A42B7
:1035300005D0204629F0E8FF400040F0010415F0D6
:10354000810306D1069A302A03D15745B8BF5746A2
:103550009A4620460DF1280B2DF012F9002818DBB1
:10356000AA0712D52B238DF828300DF12903E80680
:10357000F6B21DD5B9F1020F0DD130211A4602F86D
:10358000021B711C5970134612E06B0701D52023F2
:10359000E9E75B46EBE7B9F1080F61D1A9054FF008
:1035A00030021A7049BF06F10E0201335A7002331D
:1035B000002215F0200F0EA91A70A3EB0B030B913C
:1035C0004FF0100105930CBF13462C23BAF1010FE5
:1035D0008DF82720C8BF45F04005CDE90C1215F045
:1035E0004001CDE90263079144D023460CA90BA802
:1035F000CDE900920DAA2CF0A3FF037881462D2B74
:1036000006D18DF8273000F101090D9B013B0D9388
:10361000BAF1010F3CDD0D9C079B5445B8BF5446E1
:103620002BB19DF8273003B10134059B1C44A74200
:103630002BDD15F00103A7EB040427D126461C4619
:1036400025F001054EB120230196344940460093F0
:1036500000231A46FFF79AFE06463023069319E028
:10366000B9F1100FA4D130211A4602F8021B06F15D
:10367000170187E70AAB0DAA0CA90BA8CDE90093A7
:1036800023462CF05DFF8146C2E700240026D7E7E1
:1036900000242646079BDBB19DF8273053B1002359
:1036A00001220DF127014046013FCDE90032FFF72D
:1036B0006DFE0644059B5BB100230122594640463E
:1036C000CDE90032059AFFF761FE059B0644FF1A1B
:1036D000069BBAF1010FC8BF57460D9A49460093A1
:1036E000404601972B46FFF751FE06444CB120237C
:1036F00001940A494046009300231A46FFF746FE0C
:1037000006440B980EAB984201D01CF0F3FC3046F7
:1037100013B0BDE8F08F00BFBC84070848C8080894
:103720002DE9F04316468BB080469946B207129FAA
:103730003CD416F0040F0CBF0023202300930A464C
:10374000139B202102A8FFF7D7F9F30504460DD5F6
:10375000431C1F2B0AD80AAA00211444252204F86E
:10376000202C0AAA1C461A4402F8201C16F0400518
:103770001ED09DF808302F2B4FF000031AD80122DD
:1037800002A94046013F013CCDE90032FFF7FEFDB2
:103790000DF109010546334622464046CDE9009722
:1037A000FFF7F4FD28440BB0BDE8F0832B23C5E7F9
:1037B00002A9F0E702A91D46EDE700002DE9F04F50
:1037C000804689B0144600260B461D4613F8012B8F
:1037D0000AB1252AF9D1A94208D26F1AD8F80430C3
:1037E000D8F800003A463E44984729460B78002B0B
:1037F00000F0F18001314FF020094FF0000A0A4635
:1038000012F8015B15B94FF00A0C1DE02D2D03D104
:103810004AF0010A1146F2E72B2D02D14AF0020AC2
:10382000F8E7202D02D14AF0040AF3E7212D02D156
:103830004AF0080AEEE7302D22D14AF0400AA946A4
:10384000E8E70CFB0525303D0F4611F8012BA2F1EE
:1038500030000928F5D92E2A35D17A782A2A11D0B4
:103860004FF0000B4FF00A0C0F4611F8012BA2F19C
:10387000300009280BD80CFB0B2BABF1300BF3E716
:103880000025C0E754F8042B023722EAE27B3A789D
:103890006C2A08BF01373978002900F09C80642920
:1038A0007ED028D850292DD010D8A1F14502022A67
:1038B00040F28480D8F8043001223946D8F800005C
:1038C000984701364AE04FF0FF3BE0E7622939D0E4
:1038D00049D85829EED14A1C21F00F01CDF804A097
:1038E00002F006020F39C2F11003C9B2CDE9029508
:1038F000009100225CE071293FD00BD867295DD987
:103900007029D7D16123CDF804A000931023CDE90D
:103910000295EEE77529DED07829DCD07329C9D16C
:1039200054F8041B084605913CF01EFEBBF1FF3F16
:103930000246059902D0584528BF5A465346CDE95C
:10394000009507E054F8042B5346CDE900953AB1B1
:10395000042223494046FFF719FD0644791C33E74A
:1039600005222049F6E754F8042B534607A98DF8A1
:103970001C200122CDE90095ECE707A954F8040BBF
:103980001DF0BFFABBF1FF3F014604D0079A9345F3
:1039900038BFCDF81CB05346079ACDE90095D9E75A
:1039A00061230122CDF804A000930A23CDE90295FA
:1039B00054F8041B4046FFF745FDCEE707344B465D
:1039C0005246404624F00704CDE9005BB4EC020BFC
:1039D000FFF7A6FEC1E7304609B0BDE8F08F00BF93
:1039E000DC5D0708E15D07080EB403B503AA52F8D1
:1039F000041B0192FFF7E2FE02B05DF804EB03B096
:043A0000704700000B
:020000040802F0
:10000000034B1B685B685A690260586100207047A7
:10001000D0D00220034B1B685B685A6912685A6192
:10002000704700BFD0D00220C4600561466187617F
:10003000C0F81C80C0F82090C0F824A0C0F828B0F8
:10004000C0F82CD080ED0C8B80ED0E9B80ED10ABBA
:10005000C0F808E0FFF7D4BF08B5114B1B685A6819
:1000600053690BB92EF0BAFB1968586051611846F4
:10007000C468056946698769D0F81C80D0F820906B
:10008000D0F824A0D0F828B0D0F82CD090ED0C8B6C
:1000900090ED0E9B90ED10ABD0F808E0012070477A
:1000A000D0D0022010B50021044600F031FB18B971
:1000B00014B120460CF024FA10BD002100F028BB3A
:1000C00010B50121044600F023FB18B914B12046F5
:1000D0000CF016FA10BDFFF7E5BF10B501220C4673
:1000E00000F064FC18B914B120460CF009FA10BDF8
:1000F00000F05CBC00F0E6BB2DE9F04300252A4C83
:100100000326D4F818720021013143189A0803F02D
:100110000303BA5C5B0042FA03F303F00303022B10
:10012000F2D00901D4F824328A0803EB001009B395
:1001300000EB820103681A0719D1D4F824229A42ED
:1001400015D89A1AD4F828724FEA121C9F424FEA27
:1001500092120CF003030AD9D4F818E25B001EF8DF
:10016000028048FA03F707F00307012F09D0043093
:100170008842DFD1B5B1013D05F58C7334F8130029
:10018000BFE706FA03F33F2D05F58C7943EA080330
:100190000EF8023003D824F819C00135E7E7C4F897
:1001A0002C72E4E7BDE8F083CCC90220F0B4194F0B
:1001B00001224FF0030CD7E98853C01A0409C10982
:1001C00004F0070680096B5CB240A60823EA02032C
:1001D0006B5404F00301D7F8BC32D7F81852984298
:1001E00038BFC7F8BC022A5C490001340CFA01F39D
:1001F00004F0030122EA03024B00AA55A608D7F82F
:100200001852AA5D42FA03F303F00303022BEBD06A
:10021000F0BC7047CCC9022021F00F03002170B55B
:100220001C1A164E164DE400C5F82832A6FB0464CD
:10023000C5F81802640AA3EB841306192246C5F810
:100240002432C5E9874620F057F90021A200D5F8ED
:1002500020020732D20820F04FF90A4A0023012178
:1002600010684FF0FF32C5F8BC3240680381C5F812
:10027000B432A5F8B012C5F8B82270BDF32C23FA39
:10028000CCC90220D0D00220034B1B685A681389C6
:1002900001331381704700BFD0D00220034B1B688D
:1002A0005A681389013B1381704700BFD0D00220E8
:1002B000034B1B685B681889003018BF012070472A
:1002C000D0D00220F8B51D4B00221D4C03271B681F
:1002D00004F1080504F5FA7659680B8901330B819E
:1002E000C4F8B422C4F82C2255F8042F130718D1EF
:1002F000D4F824329A4214D3D31AD4F82812180905
:100300008A424FEA931300F003020AD2D4F818C2CB
:1003100052001CF803E04EFA02F101F0030101293A
:1003200002D0AE42E0D1F8BD07FA02F242EA0E0274
:100330000CF80320FFF7E0FEF3E700BFD0D0022067
:10034000CCC9022071B3F8B5041F174E032704EB84
:10035000810554F8043F1A0718D1D6F824229A428E
:1003600014D89A1AD6F82812100999424FEA921214
:1003700000F003030AD9D6F818C25B001CF802E0AB
:100380004EFA03F101F00301012902D0A542E0D1A8
:10039000F8BD07FA03F343EA0E030CF80230FFF747
:1003A000ABFEF3E7704700BFCCC902202DE9F04F48
:1003B000804C85B0D4F81C32D4F82C229B00002A43
:1003C00063D04FF000084FF0030EC4F82C82002BCE
:1003D00000F08A80002502E001359D4251D2D4F818
:1003E0001862A90805F00302715C520041FA02F29A
:1003F00002F00302032AEFD1284600230022013233
:1004000011188F0801F00301F75D490047FA01F167
:1004100001F003010229F2D01201D4F82412970846
:1004200001EB001012B300EB8707066832071AD100
:10043000D4F82422964216D3B21AD4F828124FEADE
:10044000121C8E424FEA92120CF003010BD2D4F828
:100450001892490019F802A04AFA01F606F00306BC
:10046000012E00F091800430B842DED1002B00F064
:100470009980013BD4F8186203F58C7234F81200AD
:10048000BCE7D4F82C22002A9FD16BB300214FF097
:10049000030A4FF001094FF002080E4605E0BEF1D5
:1004A000010F3AD001369E421ED2B708D4F8180286
:1004B00006F00305C25D00EB070C6D0042FA05FE75
:1004C0000EF0030EBEF1020F1AD0BEF1030FE6D1FB
:1004D00008FA05F50136002122EA0502C255D4F8D2
:1004E0001C329B009E42E0D3334B00221B68C4F8B1
:1004F000BC225A681389013B138105B0BDE8F08F17
:100500000029CFD00AFA05F5012122EA05028CF86C
:100510000020D4F81C329B00C4E7F308D4F8201262
:1005200006F0070B11F803E0194401934EFA0BF0A3
:10053000C307E7D53001D4F8242252F800C0104494
:10054000BCF1000F14D002AAB1210BF0DDF9DDE9F6
:10055000013242B10CF01EFADDE902010CF0EAF9B9
:100560000CF02EFA019BD4F82022D11812F803E0E7
:1005700009FA0BFB2EEA0B0E81F800E0D4F81832D2
:1005800003EB070CDA5DBDE70EFA01F13F2B03F533
:100590008C7B41EA0A0109F8021007D824F81BC035
:1005A000013360E7D4F81C329B0015E7C4F82C62D5
:1005B00059E700BFCCC90220D0D00220054B002053
:1005C00005491B685A68138901331381C1F82C024D
:1005D000FFF7ECBED0D00220CCC902204B4A00234A
:1005E0002DE9F04FD2F8281283B0D2F824421F46EA
:1005F000D2F818E29946D2F81C22091B43601E4625
:1006000001609C4683601C4601931946C3609A466C
:1006100003614FEA8208436183619EF800304FEA2C
:100620004A0A43FA0AF303F00303012B3BD0002BE1
:1006300056D0022B02D10136013446600131884583
:100640000CBF0125002532D08B0801F0030A1EF8EB
:1006500003304FEA4A0243FA02F212F0030214BFD7
:10066000AB464FF0010BBBF1000F41D1012AD6D1AF
:100670005D461346012C21D0022C02D14269013281
:1006800042614C4501D9A1468461DBB98B0801F078
:10069000030A1EF803304FEA4A0A43FA0AF303F04A
:1006A0000303012BC3D101361C464660C6E7012B6C
:1006B00014BF2B4645F00103012CDDD10269013244
:1006C0000261DEE7BC4502D96746C0F80CC0ADB197
:1006D000019B36011B01C0E9016303B0BDE8F08F47
:1006E000019A0CF1010C1C46013201928260A5E7CF
:1006F000012A14BF2B4645F00103BBE78B08AC462B
:1007000001F0030A1EF8033089E700BFCCC90220BC
:100710000F302DE9F047070952D0684B1B685B6822
:100720001B89002B4CD1664E0D46B6F8B032002B1B
:100730000CBF4FF0010E4FF0000E46D1D6F8BC4270
:10074000D6F81CC2A44538D9D6F81802611E00227A
:1007500001441AE00132974251D913F00C0F1ED117
:100760000132974240F2A08013F0300F1CD10132C9
:10077000974240F29C8013F0C00F1AD10132974289
:1007800040F298800134644517D211F8013F13F00C
:10079000030FDFD013F00C0F4FF00002E0D013F086
:1007A000300F4FF00002E2D013F0C00F4FF0000204
:1007B000E4D0013400226445E7D3BEF1000F13D02A
:1007C0004FF0000A5046BDE8F087D6E9AD239A42C3
:1007D000B4D335F00AFFD6F8BC42D6F81CC2644543
:1007E000EED24FF0010EAFE735F0FFFED6F8BC4277
:1007F000D6F81CC24FF0010EA445A5D8E0E7A4002E
:10080000A11A012A01F1010803D1631C9B08C6F853
:10081000BC32012308F0030C4FEA980E02310CFAA7
:1008200003FC10F80E908C4203FA0CF343EA090320
:1008300000F80E3012D34FF0020E01F003038808C7
:10084000D6F818C201315B001CF800908C420EFAF9
:1008500003F343EA09030CF80030EED2D6F82492F1
:100860004FEA0814D6F8B432120109EB040A002149
:100870001F445046C6F8B4721FF03EFEEB07A1D5E8
:100880000023D6F820124FEAD80208F0070849F8EA
:1008900004300123885C03FA08F848EA000850464F
:1008A00001F80280BDE8F087A4000134A8E7A400A5
:1008B0000234A5E7A4000334A2E700BFD0D0022091
:1008C000CCC902201D4B1B685B681B89A3BB98B376
:1008D0000121F0B41A4ED6E98873C01A0409C5097B
:1008E00004F0070C83097A5D01FA0CF122EA010297
:1008F00004F003017A55A508D6F8BC220327D6F8E0
:100900001802934238BFC6F8BC32C25C49000134B9
:1009100007FA01F304F0030122EA03024B004255F7
:10092000A508D6F81802425D42FA03F303F0030368
:10093000022BEBD0F0BC7047704700BFD0D0022034
:10094000CCC90220034610F00F001AD1164AD2F883
:100950002412994217D810B4D2F828429C420DD9DB
:100960005B1AD2F818121C099B0904F00302CB5C35
:100970005200134103F00303012B05D05DF8044B33
:100980007047002070477047013023189A0803F021
:1009900003038A5C5B0042FA03F303F00303022BB8
:1009A000F2D00001EAE700BFCCC902202DE9F04FE8
:1009B0000B4683B08046002800F0B28001920029E7
:1009C0007AD0DFF87491D9F800305B681E89002E68
:1009D00078D1584F01F10F05D7F824022D09D7F827
:1009E0001C22A8EB000092004FEA101C0CF1010E33
:1009F000724540F29C80D7F818B24FF0010A4FEAD6
:100A00009E040EF003031BF804405B0044FA03F35A
:100A100003F00303022B5AD023B9013606EB0A0375
:100A2000AB4256D3554542D026D35644AE4255D25A
:100A3000019B002B46D0C309D7F820220CF0070CED
:100A40000846D15C41FA0CF101F00101FFF760FEAC
:100A50000446002836D04FEA0A1241461FF008FD2E
:100A6000D9F800305B681B8913BB4046FFF79EFB3B
:100A7000204603B0BDE8F08F65444FF0030ED44428
:100A8000284600F003038108D7F8184201305B00C4
:100A9000625C60450EFA03F322EA03036354F0D16B
:100AA000AD08D7F8BC329D4238BFC7F8BC524446A7
:100AB000204603B0BDE8F08F1F4B1B685B681C89A4
:100AC000002CD3D00024204603B0BDE8F08F0AF1FB
:100AD000010A0EF1010E724591D1A3E70CEB0A0059
:100AE000AC4484450FD9022200F003038108D7F8F3
:100AF000184201305B00665C844502FA03F343EA66
:100B000006036354F0D1A5EB0A02444608EB0A1031
:100B1000002112011FF0F0FC204603B0BDE8F08F69
:100B20000146184603B0BDE8F04FFFF7F1BD4FF0A6
:100B3000010A77E7CCC90220D0D0022010B58AB0D4
:100B40000B4C03A8FFF74AFD059A049B2046009230
:100B50000849039AE2F748FF069A099B204606498E
:100B6000CDE90032DDE90723E2F73EFF0AB010BD10
:100B7000D45D070804010708280107082DE9F84398
:100B8000DFF86C914A49D9F824224A48E2F72CFF51
:100B9000D9F81C12890076D00024DFF85881464F1E
:100BA000444E0CE0012D49D02E2244493046E2F754
:100BB0001BFFD9F81C1201348900A14263D904F04B
:100BC0000305A206D9F818024FEA45050BD0A30881
:100BD000C35C43FA05F505F00305022D2CD0032D67
:100BE000E0D16D22E1E7A4464FEA9C020CF003033A
:100BF000825C5B0042FA03F39B0703D10CF1010C0A
:100C00008C45F1D3ACEB04027F2A0CD992092C4914
:100C100030462CF03F04E2F7E7FED9F81C32B4EB83
:100C2000830F30D2002508EA041239463046E2F735
:100C3000DBFED9F81802CAE73D22B6E7D9F824222C
:100C400023012049D2588A4223D01F4B9A4222D0F6
:100C50001E4B9A4225D01E4B9A421ED01D4B9A42E3
:100C60001BD01D4B9A421AD01C4B9A4217D01C4BDA
:100C70009A4218D01B4B9A4217D01B4B9A420CBF7A
:100C80004D22682291E719490A48BDE8F843E2F786
:100C90006DBB542289E74C2287E7532285E7412226
:100CA00083E7442281E746227FE742227DE700BFB7
:100CB000BC000708D45D0708F80007080001070812
:100CC000DC000708EC94070828860708087807085E
:100CD00050920708A88F070828740708B073070800
:100CE00068800708F880070804880708D800070804
:100CF000CCC90220F0FF0F00054B9B695A68824265
:100D000004D8801A043053F8200070471B68F5E7B8
:100D1000CCC90220014441F20553884204D398B261
:100D2000002808BF0120704703EB431310F8012B84
:100D30005340F2E7034B044A9A610022C3F8F821BA
:100D4000704700BFCCC90220040608082DE9F84FFF
:100D500082468946FFF7DEFF134B83469C690CB938
:100D600020461EE004F11008E668454608EB8606BA
:100D7000B5422F4601D32468F1E755F8040B0388E8
:100D80005B45F5D183784B45F2D14A465146033055
:100D90001FF0C8FB0028EBD1A7EB0807606800EB49
:100DA000A700BDE8F88F00BFCCC902202DE9F047AD
:100DB00080460E46FFF7CAFF0246002877D1FF2E75
:100DC00003D9404940480AF015FE404C351DD4F87F
:100DD000F80190B1D4E97F132B448B422BD92944DD
:100DE000FFF786F90746E8B90246D4F80012D4F8AE
:100DF000F801FFF77DF9C4F8F871802D2F4638BF50
:100E000080273846FFF759F9C4F8F801002852D175
:100E10002846FFF752F9C4F8F80100284AD12846BD
:100E20000BF06EFBD4F8FC312B44C4F8FC31D4F841
:100E3000F831002BE1D0D4F800923146D4F8F8A173
:100E400040464D440AEB0907C4F80052FFF762FF21
:100E50000AF80900000ABE70324678704146F81C54
:100E60001FF006FBBB190026DE70A369D3E902530D
:100E7000AB4212D36D000A2D38BF0A25281D800011
:100E8000FFF71BF90028CAD0A26953680260D26834
:100E9000C6601344C0E90135A061A369D9685A68E6
:100EA000481C0431013AD860024443F821701046CE
:100EB000BDE8F0872F460023C4F8FC71C4F8003267
:100EC000B9E700BF931D0708B07D0708CCC9022011
:100ED00010B504461FF048FB01462046BDE810400F
:100EE000FFF764BF08B5FFF707FF008808BD08B526
:100EF000FFF702FF807808BD08B5FFF7FDFE03305D
:100F000008BD08B5FFF7F8FE837803300B6008BD15
:100F10002DE9F8431D460023074688460360164620
:100F20000B6013602B60164BDFF858909C690CB176
:100F30004C4505D12B68326813442B60BDE8F8831B
:100F40003B6801333B60E268D8F800301344C8F8CE
:100F5000003004F11003E26803EB8202934207D3EE
:100F60002046FFF7EFFC2B68246818442860DEE772
:100F700053F8041B88783168043101443160EDE78F
:100F8000CCC90220040608082DE9F8430E4B0F4F88
:100F90009C69DFF83C80DFF83C900CB1BC4201D189
:100FA000BDE8F88304F11005E36805EB8306B5425C
:100FB00001D32468F1E755F8042B41464846033233
:100FC000E2F712FDF3E700BFCCC9022004060808CF
:100FD0008C1D0708D45D070830B50023202411F8C4
:100FE000012F0AB9027030BD120600F101051ED5AD
:100FF0000BB1047028460B78114A03F07F0363B9E4
:10100000013A12F8013F0546013013F0800F0BD072
:1010100003F07F032B700123E1E712F9015B002D40
:10102000FBDA013BDBB2EAE700F8013CE9E7012B20
:1010300004BF047028460B7800F8013B0223CEE77A
:101040006402070838B54468054603680C449C42AE
:1010500010D9037BDB0703D5002107480AF0CAFC3F
:101060001034806824F0070408342146FFF735F86F
:101070002C60A86038BD00BFB07D070870B504467D
:101080000E4611461546FFF7DDFF31462A46D4E9E4
:10109000013018441FF018FA62682A44626070BD7B
:1010A00070B5466804468E42354628BF0D4601217C
:1010B000FFF7C8FFA368681C721B591918441FF07A
:1010C00003FA6368A06801332844636070BD38B5D3
:1010D0000446081E4FF0000508BF0120656020602F
:1010E000FEF7E0FF237BA06065F30003237338BDA8
:1010F00038B505460C460131FFF7E9FF6C6038BD95
:1011000000230160C0E90132037B43F00103037354
:101110007047000038B514460546FFF7D8FF024B6C
:101120002560636038BD00BF7D100208037BDB07CC
:1011300010B5044602D48068FEF7DCFF0023A360EC
:1011400010BD38B505461020FEF7ACFF0446294611
:10115000FFF7BDFF204638BD10B5044650B1037BF4
:10116000DB0702D48068FEF7C5FF2046BDE81040CB
:10117000FEF7C0BF10BD000038B5037B04460D4626
:10118000DB0703D5002107480AF034FC01688068BA
:101190002944FEF7A2FF2368A0601D44184425607F
:1011A00038BD00BFB07D070838B504460D46FFF7CF
:1011B00049FFD4E901301D441844656038BDD0E9C9
:1011C000002310B59A42044602D10121FFF7D4FF53
:1011D0000021D4E90132D154A06810BD10B50C46ED
:1011E0000121FFF7E1FF047010BD7F29F8B50C461F
:1011F000CEB204D80121FFF7D7FF0670F8BD06F084
:101200003F06B1F5006FC1F3871546F0800607D29F
:1012100065F03F050221FFF7C7FF46700570EDE757
:1012200005F03F05B1F5803FC1F3073745F0800574
:1012300008D20321FFF7B8FF67F01F034570037062
:101240008670DBE70421A40CFFF7AEFF07F03F0335
:1012500064F00F04857063F07F03C6700470437000
:10126000CCE738B505460C4608461FF07DF9214607
:1012700002462846BDE83840FFF700BF10B51446C7
:10128000FFF70EFF047010BD10B51446FFF708FFFE
:10129000047010BD43688B422CBF5B1A002343606F
:1012A000704738B51546426804460B468A4203D952
:1012B00029448A4201D8436038BD8068521A0144EB
:1012C00018441FF001F96268521B6260F4E703786A
:1012D0001A060AD503F07F034022134207D110F803
:1012E000012F02F0C001802905D01846704723EA7B
:1012F00002035208F1E702F03F0242EA8313EEE7ED
:10130000421C10460132037803F0C003802BF8D052
:1013100070470023814201D81846704711F8012D0B
:1013200002F0C002802A18BF0133F3E701440346EC
:10133000002099421A4600D870471278013302F013
:10134000C002802A18BF0130F3E700007F289DBF4C
:10135000024B185CC0F3400000207047095E07088C
:101360007F289DBF024B185CC0F3C000002070476F
:10137000095E07087F289DBF024B185CC0F3800000
:1013800000207047095E07087F289DBF024B185C4C
:10139000C0F3801000207047095E07087F2809D835
:1013A000064B1B5C13F00C0F06D1A0F15F035842F3
:1013B000584170470020704701207047095E0708B8
:1013C0007F289DBF024B185CC0F3001000207047BF
:1013D000095E07087F289DBF024B185CC0F34010D0
:1013E00000207047095E070808B50246FFF7E8FFCE
:1013F00000B12032104608BD08B50246FFF7EAFFEB
:1014000000B1203A104608BD3038092884BF20F0CA
:1014100020000738704710B501440246E52400203B
:10142000914203D8B0FA80F0400917E012F8013B6E
:1014300030B103F0C003802B11D10138C0B2EFE707
:10144000BF2B09D9F72B09D8DB0803F0060344FAB0
:1014500003F303F00300E3E71B06E1D510BD002012
:10146000FCE7023981420B4603D31A880239002A6D
:10147000F8D002331B1A5810704770B51C099442FB
:1014800016D2121B01EB440103F00F0315460E4662
:10149000012D31F8024B18BF3468013D24FA03F4E2
:1014A000A4B220F8024BF2D104B9013A104670BD43
:1014B0000022FBE7F0B5059D0024521B2746A542FC
:1014C0000FD16D00002344190D449A4214D104EB4E
:1014D00042031FB10121023324F81210181A4010E0
:1014E000F0BD31F8146033F814C066443E4420F86F
:1014F0001460370C0134E2E735F813603E4424F8F9
:101500001360370C0133E0E7F0B4049E0025921B12
:101510002C46AE420AD17600002385190E449A4229
:101520000FD105EB4201F0BCFFF79BBF31F81570FE
:101530003C4433F81570E41B20F8154024140135A1
:10154000E7E736F813100C4425F813402414013350
:10155000E5E72DE9F043079C0239DDF828E0154660
:1015600084464FF6FF78A4EB0209DDE9087655B909
:1015700000EB42011FB10123023120F81230BDE817
:10158000F043FFF76EBF31F8024F013D444426445B
:1015900005EB0904AC4296BF33F8024B4FF6FF74DB
:1015A0004444744486EA040E360C17FA8EF74FEA68
:1015B000144E2CF8027B3F0CD9E7022938B538BF0E
:1015C0000221044680680D4618B12368B1EB930FE1
:1015D00007D96900FEF781FD2368A06065F39F03CA
:1015E000236038BD38B505460C20FEF75BFD037857
:1015F0002A78044662F300036FF3410303702868FE
:101600002368C0F39D0060F39F03400023606B6874
:101610006360FEF747FDA0602A68A968C2F39D02D7
:1016200052001EF025FF204638BD4B0018441A44D6
:1016300010B509B9084610BD30F8023D32F8024D28
:101640001B1B002B02DB04D10139F2E74FF0FF3006
:10165000F1E70120EFE710B5044638B18068FEF7E6
:1016600049FD2046BDE81040FEF744BD10BD38B529
:101670000C4602210546FFF7A0FF002C2B78B6BFD1
:1016800001220022644262F300032B7000236B608E
:1016900004B938BDD5E90132581C686022F81340FE
:1016A000240CF5E70023C0E900338360704728B1BC
:1016B00003789B0702D48068FEF71CBD704738B5DD
:1016C00005460C464968FFF778FF22782B78A86812
:1016D00062F300032B706368A1686B606268BDE809
:1016E000384052001EF0C4BE034609B95960704725
:1016F000FFF7BDBF08B5FFF7D5FFBDE80840FFF70E
:10170000F3BF30B4046862F39F040022046004F065
:10171000FC0444F00204C0E901210470194630BC05
:10172000FFF7E2BFF8B59DF81840042105461646BC
:101730001F46FFF742FF84B1002E77F100030CDA59
:10174000764267EB4707297864F30001297000218E
:10175000696056EA070302D1F8BD0024F3E7D5E932
:1017600001104C1C6C6020F81160310C380C41EAFF
:10177000074107460E46ECE72DE9F84353EC102BE2
:101780001E460378074610EE105AF20F62F300036C
:10179000037047F6F07313EA164203D100237B600F
:1017A000BDE8F8839A42F9D0C6F30A52A2F2FF3498
:1017B000002CF3DB04D10121BDE8F843FFF757BF4C
:1017C000A2F2EF38C6F31306B8F1000F46F4801604
:1017D000B8BFA2F57878332C4FEA281840DCC4F162
:1017E0003404C4F12002A4F12003E54006FA02F219
:1017F00026FA03F3E64000241543A1461D43414663
:101800003846FFF7DAFEC7F80480B9F1000F05D0BB
:101810004FEA49020021B8681EF06EFEA4B105FA35
:1018200004F2BB68C4F1100423F8192009F101097E
:10183000C4F12002A4F12003E54006FA02F226FAE0
:1018400003F3E64015431D434B469845A8D0BA68BC
:1018500022F813502D0C013345EA0645360CF4E707
:10186000A2F233430C34002B04F00F04B8BFA2F2F1
:1018700024434FEA2319C2E72DE9F8438F18C2F336
:101880005B0204460D46511C9846089EFFF795FEE4
:101890002278002329461FFA86FC68F30002636061
:1018A0002270B942084602D3401BBDE8F883027893
:1018B0000131A2F13003092B05D9A2F14103192B03
:1018C00014D8A2F13703B342EED2D4E901E0F046D6
:1018D0008146B8F1000F10D100EB4E0213B1023275
:1018E00020F81E30121A52106260DAE7A2F161038A
:1018F000192BD9D8A2F15703E5E7B9F8002008F170
:10190000FF3802FB0C3329F8023B1B0CE1E7F8B56A
:10191000044615461E46C1B1531E4FF0FF371E4404
:10192000E90020460F310909FFF747FE237800211F
:101930006FF30003616023704DB9D4E9011000EB2F
:101940004101FFF78EFD6060F8BD0127E8E7002345
:101950000F290ADC3278013D3E4402FA01F201F11E
:10196000080143EA02039BB2F2D162681039501CAD
:101970006060A06820F81230DEE70A46416838B59A
:10198000044609B9506890B11378257803F0010333
:1019900005F00100181A0AD15368994208D30AD8F1
:1019A0009268A068FFF741FEEB0748BF404238BD90
:1019B0004FF0FF30F8E70120F6E7884210B5044603
:1019C00001D0FFF77CFE23786FF30003237010BD76
:1019D000884210B5044601D0FFF771FE2378C3F3A7
:1019E0000002C2F1010262F30003237010BD8842BD
:1019F0001FB5044601D0FFF762FE626862B901219B
:101A00002046FFF7DAFD0123A26813806360237884
:101A100043F00103237010E02378D9070FD56FF34B
:101A20000003A168237001230846ADF80E3000932F
:101A30000DF10E03FFF768FD606004B010BD511C8E
:101A40002046FFF7BAFD0123D4E90121ADF80E309D
:101A5000009308460DF10E03FFF72CFD6060D6E7FA
:101A60002DE9F0470E4649680546174601B12AB9E7
:101A700031462846BDE8F047FFF721BE02F10F04CA
:101A800024092144FFF799FD706817F00F0EA9682B
:101A900004EB0007B36808BF4FF0100E002207F1F7
:101AA000004803EB4009CEF1100E08F1FF384FEA71
:101AB000480801EB080C0146E24611BB6FF0010338
:101AC00022FA0EF208F1020858430CEB00092CF838
:101AD000002004F1004203FB0493013A0233520058
:101AE00018461EF009FD0346434417B133F8022D92
:101AF0008AB12B786F60327862F300032B70BDE8F7
:101B0000F08739F8023D01391A4322FA0EF3120424
:101B10002AF80239D1E7013FE7E7F0B50E464968F8
:101B200085B00546144601B12AB931462846FFF76B
:101B3000C6FD05B0F0BDFFF740FD2346A868D6E915
:101B40000121FFF79AFC2B7868600246317861F337
:101B500000032B70DB07ECD5002321097768ADF873
:101B60000E309F4201D08B420FD18F42E1D9B36832
:101B700004F00F0433F81110012303FA04F4013CBC
:101B8000214213D0ADF80E3008E0B06830F81300F1
:101B900050B101238F42ADF80E30E8D8A968012377
:101BA0004AB90B806B60C4E70133DAE7BDF80E3049
:101BB000002BBED0F2E7009308460DF10E03FFF7AD
:101BC00079FC6860B5E773B553680C46496806460A
:101BD0001546994206D308D89268A068FFF725FDFC
:101BE000002802DA23462C461D4623782A786168AD
:101BF0005340DB0713D401313046FFF7DEFC6B683E
:101C0000B0680093AB68D4E90121FFF753FC337847
:101C10007060227862F30003337002B070BD30460A
:101C2000FFF7CBFC6B68B0680093AB68D4E9012187
:101C3000FFF76AFCEBE7F7B553680C4649680646C0
:101C40001546994206D328D89268A068FFF7EDFCA4
:101C5000002822DA234601272C461D4623782A78BD
:101C600061685340DB071AD501313046FFF7A5FC08
:101C70006B68B0680093AB68D4E90121FFF71AFCE8
:101C80007060237803F001030FB183F00103327811
:101C900063F30002327003B0F0BD0027DEE7304688
:101CA000FFF78BFC6B68B0680093AB68D4E9012147
:101CB000FFF72AFCE4E72DE9F04F15464A680E4687
:101CC00085B06B6804469A423EBF0B462E461D46C1
:101CD00033787168DB0721D42B7813F001071DD10D
:101CE000FFF76BFCA068B6683B46D5E9011C99423A
:101CF0000BD100EB4101FFF7B4FB237860606FF379
:101D00000003237005B0BDE8F08F36F813203CF8CF
:101D100013502A4020F813200133E8E70131204610
:101D2000FFF74BFCAB6832782F78009382EA070309
:101D300002F0010207F00107D6F804E0DB43A068D7
:101D4000C7F1000803F0010381461FFA88F8C3F1C8
:101D5000000C1FFA8CF1C2F1000C02911FFA8CF1F9
:101D6000F4460191B168A1F1020A6968A1EB0E0184
:101D70000391BCF1000F15D100EB4E011BB1012303
:101D8000023120F81E30FFF76CFB606033782A7850
:101D9000C3F30003C2F300021340227863F300028E
:101DA0002270AFE73AF802BF0CF1FF3C019981EADB
:101DB0000B0B03995A4401EB0C0BE34597BF0099B9
:101DC000C34631F802BB88EA0B0B98BF0091029919
:101DD0005F4402EA070B3F0C120C8BEA010B13FA6B
:101DE0008BF329F8023B1B0CC3E72DE9F84F16468D
:101DF0004A680D46044673689A423EBF0B46354614
:101E00001E462B786968DB072ED4327812F0010861
:101E10002AD1FFF7D2FBA9686D684246A768D6E9C8
:101E2000013CED1A934210D15B00002219443B445F
:101E3000954213D103EB4503DB1B5B1063602378F2
:101E40006FF300032370BDE8F88F31F812003CF8FF
:101E50001260304327F812000132E3E731F8120034
:101E600023F812000132E3E701312046FFF7A5FB1A
:101E70002F7869684FF0010907F00107AD68A06885
:101E8000C7F10008A5F1020E82460D461FFA88F838
:101E9000D6E901233678A2EB010B06F00106C6F164
:101EA000000C1FFA8CFC45B900EB4101FFF7D9FA91
:101EB0002378606043F00103C4E73EF8022F013D40
:101EC00088EA020217440BEB0502AA4296BF33F8D8
:101ED000022B62468CEA0202164447EA0602360CDE
:101EE0003F0CD24319FA82F22AF8022B4FEA124928
:101EF000D9E7F0B516464A680C4685B073680546C2
:101F00009A423EBF0B4634461E46277861683378B6
:101F10005F4017F001073AD1FFF74FFB237813F02A
:101F2000010328D1A2686468A868D6E90117641A79
:101F3000994210D1490000230A440144A34214D11C
:101F400001EB4301FFF78DFA2B7868606FF3000314
:101F50002B7005B0F0BD32F8136037F813C086EA75
:101F60000C0620F813600133E2E732F8136021F821
:101F700013600133E2E7CDE9027701977368A8683F
:101F80000093B368D4E90121FFF7E3FADCE70131FC
:101F9000FFF713FB3378A868DB4303F001030393D7
:101FA0002378DB4303F00103029301230193736859
:101FB0000093B368D4E90121FFF7CBFA2B7868606E
:101FC00043F00103C4E74B682DE9F04F044685B0A8
:101FD0000E4615460BB1536823B90023636005B064
:101FE000BDE8F08F814234D1FFF7FCFAA5420646E6
:101FF000074600D105466B68204671681944FFF713
:10200000DCFA22680021A068C2F39D0252001EF093
:1020100073FAB368A16800220193AB68D6F804A0F4
:1020200002936B6801EB4A0C03938B1E00931346DB
:102030000398904239D1636038462A783378534008
:10204000227863F30002227005B0BDE8F04FFFF77D
:1020500002BB824204D1FFF7C5FA05460746CAE72C
:102060000027C8E738F8029F0EF1FF3E0298994416
:102070003BF8023B30F8120000FB0393A8F8003055
:102080001B0CBEF1000FEDD1E6460CF1020813B1B6
:10209000C646ACF800300098AEEB010E0132C446E3
:1020A00002304FEA6E030090C2E7DDE9008BD646AE
:1020B0000023E6E74B6870B50646144613B1137863
:1020C000DA0702D50023736070BD636823B901216C
